{
  "abi": [
    {
      "type": "constructor",
      "inputs": [],
      "stateMutability": "nonpayable"
    },
    {
      "type": "function",
      "name": "contractType",
      "inputs": [],
      "outputs": [
        {
          "name": "",
          "type": "string",
          "internalType": "string"
        }
      ],
      "stateMutability": "pure"
    },
    {
      "type": "function",
      "name": "createERC1155Collection",
      "inputs": [
        {
          "name": "params",
          "type": "tuple",
          "internalType": "struct CollectionParams",
          "components": [
            {
              "name": "name",
              "type": "string",
              "internalType": "string"
            },
            {
              "name": "symbol",
              "type": "string",
              "internalType": "string"
            },
            {
              "name": "owner",
              "type": "address",
              "internalType": "address"
            },
            {
              "name": "description",
              "type": "string",
              "internalType": "string"
            },
            {
              "name": "mintPrice",
              "type": "uint256",
              "internalType": "uint256"
            },
            {
              "name": "royaltyFee",
              "type": "uint256",
              "internalType": "uint256"
            },
            {
              "name": "maxSupply",
              "type": "uint256",
              "internalType": "uint256"
            },
            {
              "name": "mintLimitPerWallet",
              "type": "uint256",
              "internalType": "uint256"
            },
            {
              "name": "mintStartTime",
              "type": "uint256",
              "internalType": "uint256"
            },
            {
              "name": "allowlistMintPrice",
              "type": "uint256",
              "internalType": "uint256"
            },
            {
              "name": "publicMintPrice",
              "type": "uint256",
              "internalType": "uint256"
            },
            {
              "name": "allowlistStageDuration",
              "type": "uint256",
              "internalType": "uint256"
            },
            {
              "name": "tokenURI",
              "type": "string",
              "internalType": "string"
            }
          ]
        }
      ],
      "outputs": [
        {
          "name": "",
          "type": "address",
          "internalType": "address"
        }
      ],
      "stateMutability": "nonpayable"
    },
    {
      "type": "function",
      "name": "erc1155CollectionImplementation",
      "inputs": [],
      "outputs": [
        {
          "name": "",
          "type": "address",
          "internalType": "address"
        }
      ],
      "stateMutability": "view"
    },
    {
      "type": "function",
      "name": "getSupportedStandards",
      "inputs": [],
      "outputs": [
        {
          "name": "",
          "type": "string[]",
          "internalType": "string[]"
        }
      ],
      "stateMutability": "pure"
    },
    {
      "type": "function",
      "name": "getTotalCollections",
      "inputs": [],
      "outputs": [
        {
          "name": "",
          "type": "uint256",
          "internalType": "uint256"
        }
      ],
      "stateMutability": "view"
    },
    {
      "type": "function",
      "name": "isActive",
      "inputs": [],
      "outputs": [
        {
          "name": "",
          "type": "bool",
          "internalType": "bool"
        }
      ],
      "stateMutability": "pure"
    },
    {
      "type": "function",
      "name": "isValidCollection",
      "inputs": [
        {
          "name": "collection",
          "type": "address",
          "internalType": "address"
        }
      ],
      "outputs": [
        {
          "name": "",
          "type": "bool",
          "internalType": "bool"
        }
      ],
      "stateMutability": "view"
    },
    {
      "type": "function",
      "name": "supportsInterface",
      "inputs": [
        {
          "name": "interfaceId",
          "type": "bytes4",
          "internalType": "bytes4"
        }
      ],
      "outputs": [
        {
          "name": "",
          "type": "bool",
          "internalType": "bool"
        }
      ],
      "stateMutability": "view"
    },
    {
      "type": "function",
      "name": "version",
      "inputs": [],
      "outputs": [
        {
          "name": "",
          "type": "string",
          "internalType": "string"
        }
      ],
      "stateMutability": "pure"
    },
    {
      "type": "event",
      "name": "ERC1155CollectionCreated",
      "inputs": [
        {
          "name": "collectionAddress",
          "type": "address",
          "indexed": true,
          "internalType": "address"
        },
        {
          "name": "creator",
          "type": "address",
          "indexed": true,
          "internalType": "address"
        }
      ],
      "anonymous": false
    },
    {
      "type": "event",
      "name": "ImplementationDeployed",
      "inputs": [
        {
          "name": "implementation",
          "type": "address",
          "indexed": true,
          "internalType": "address"
        }
      ],
      "anonymous": false
    },
    {
      "type": "error",
      "name": "FailedDeployment",
      "inputs": []
    },
    {
      "type": "error",
      "name": "InsufficientBalance",
      "inputs": [
        {
          "name": "balance",
          "type": "uint256",
          "internalType": "uint256"
        },
        {
          "name": "needed",
          "type": "uint256",
          "internalType": "uint256"
        }
      ]
    }
  ],
  "bytecode": {
    "object": "0x60a0604052348015600e575f5ffd5b50604051601990606c565b604051809103905ff0801580156031573d5f5f3e3d5ffd5b506001600160a01b031660808190526040517fc86adeccdfd5b96c99a63be33cf8547313ccd17729b48f0572a9fa0cd23ff710905f90a26079565b6137d580610a4183390190565b6080516109a96100985f395f818161011d01526103c401526109a95ff3fe608060405234801561000f575f5ffd5b5060043610610090575f3560e01c80638585942f116100635780638585942f14610118578063939bf6dd14610157578063c71586d514610168578063cb2ef6f71461017d578063f97208fa146101b6575f5ffd5b806301ffc9a71461009457806322f3e2d4146100bc57806354fd4d50146100c357806375900e6a146100ed575b5f5ffd5b6100a76100a2366004610528565b6101c9565b60405190151581526020015b60405180910390f35b60016100a7565b6040805180820190915260058152640312e302e360dc1b60208201525b6040516100b39190610584565b6100a76100fb3660046105ac565b6001600160a01b03165f9081526020819052604090205460ff1690565b61013f7f000000000000000000000000000000000000000000000000000000000000000081565b6040516001600160a01b0390911681526020016100b3565b6001546040519081526020016100b3565b6101706101ff565b6040516100b391906105c5565b60408051808201909152601881527f45524331313535436f6c6c656374696f6e466163746f7279000000000000000060208201526100e0565b61013f6101c43660046106f1565b610272565b5f6001600160e01b0319821663108f3f3160e11b14806101f957506301ffc9a760e01b6001600160e01b03198316145b92915050565b6040805160018082528183019092526060915f9190816020015b6060815260200190600190039081610219579050509050604051806040016040528060078152602001664552433131353560c81b815250815f8151811061026257610262610846565b6020908102919091010152919050565b5f6101f9825f610281826102a3565b6102896103be565b905061029581836103ed565b61029e8161044a565b919050565b60408101516001600160a01b03166102f75760405162461bcd60e51b81526020600482015260126024820152712d32b9379030b2323932b9b99037bbb732b960711b60448201526064015b60405180910390fd5b8051516103335760405162461bcd60e51b815260206004820152600a602482015269456d707479206e616d6560b01b60448201526064016102ee565b5f816020015151116103765760405162461bcd60e51b815260206004820152600c60248201526b115b5c1d1e481cde5b589bdb60a21b60448201526064016102ee565b5f8160c00151116103bb5760405162461bcd60e51b815260206004820152600f60248201526e5a65726f206d617820737570706c7960881b60448201526064016102ee565b50565b5f6103e87f00000000000000000000000000000000000000000000000000000000000000006104b8565b905090565b6040516388ec35d960e01b81526001600160a01b038316906388ec35d99061041990849060040161085a565b5f604051808303815f87803b158015610430575f5ffd5b505af1158015610442573d5f5f3e3d5ffd5b505050505050565b6001600160a01b0381165f908152602081905260408120805460ff1916600190811790915580549161047b8361094f565b909155505060405133906001600160a01b038316907f4ebab407865d916989eddb5b77e25682cf754987126527327811df2d30ea456f905f90a350565b5f6101f9828280763d602d80600a3d3981f3363d3d373d3d3d363d730000008360601b60e81c175f526e5af43d82803e903d91602b57fd5bf38360781b176020526037600983f090506001600160a01b0381166101f95760405163b06ebf3d60e01b815260040160405180910390fd5b5f60208284031215610538575f5ffd5b81356001600160e01b03198116811461054f575f5ffd5b9392505050565b5f81518084528060208401602086015e5f602082860101526020601f19601f83011685010191505092915050565b602081525f61054f6020830184610556565b80356001600160a01b038116811461029e575f5ffd5b5f602082840312156105bc575f5ffd5b61054f82610596565b5f602082016020835280845180835260408501915060408160051b8601019250602086015f5b8281101561061c57603f19878603018452610607858351610556565b945060209384019391909101906001016105eb565b50929695505050505050565b634e487b7160e01b5f52604160045260245ffd5b6040516101a0810167ffffffffffffffff8111828210171561066057610660610628565b60405290565b5f82601f830112610675575f5ffd5b813567ffffffffffffffff81111561068f5761068f610628565b604051601f8201601f19908116603f0116810167ffffffffffffffff811182821017156106be576106be610628565b6040528181528382016020018510156106d5575f5ffd5b816020850160208301375f918101602001919091529392505050565b5f60208284031215610701575f5ffd5b813567ffffffffffffffff811115610717575f5ffd5b82016101a08185031215610729575f5ffd5b61073161063c565b813567ffffffffffffffff811115610747575f5ffd5b61075386828501610666565b825250602082013567ffffffffffffffff81111561076f575f5ffd5b61077b86828501610666565b60208301525061078d60408301610596565b6040820152606082013567ffffffffffffffff8111156107ab575f5ffd5b6107b786828501610666565b6060830152506080828101359082015260a0808301359082015260c0808301359082015260e08083013590820152610100808301359082015261012080830135908201526101408083013590820152610160808301359082015261018082013567ffffffffffffffff81111561082b575f5ffd5b61083786828501610666565b61018083015250949350505050565b634e487b7160e01b5f52603260045260245ffd5b602081525f82516101a060208401526108776101c0840182610556565b90506020840151601f198483030160408501526108948282610556565b91505060408401516108b160608501826001600160a01b03169052565b506060840151838203601f190160808501526108cd8282610556565b915050608084015160a084015260a084015160c084015260c084015160e084015260e0840151610100840152610100840151610120840152610120840151610140840152610140840151610160840152610160840151610180840152610180840151601f19848303016101a08501526109468282610556565b95945050505050565b5f6001820161096c57634e487b7160e01b5f52601160045260245ffd5b506001019056fea26469706673582212209e056a6015f5a08ae82016addb5c50475fbba723eeb097395ed266cfa9055c0064736f6c634300081e0033608060405234801561000f575f5ffd5b5061001861018a565b808060400151826101800151610033816102e260201b60201c565b506001600160a01b03811661006157604051631e4fbdf760e01b81525f600482015260240160405180910390fd5b61006a816102f2565b50606081015160049061007d90826103e8565b50608081015160055560c081015160065560e08101516007556101008101516008819055610120820151600e55610140820151600f556101608201516100c2916104a2565b601055600d805460ff60a01b19169055610180810151600b906100e590826103e8565b5060a0810151600a819055604080830151905190919061010490610343565b6001600160a01b0390921682526020820152604001604051809103905ff080158015610132573d5f5f3e3d5ffd5b50600d80546001600160a01b0319166001600160a01b039290921691909117905550805160139061016390826103e8565b50602081015160149061017690826103e8565b50506015805460ff191660011790556104c7565b6101f5604051806101a0016040528060608152602001606081526020015f6001600160a01b03168152602001606081526020015f81526020015f81526020015f81526020015f81526020015f81526020015f81526020015f81526020015f8152602001606081525090565b604051806101a001604052806040518060400160405280600e81526020016d24b6b83632b6b2b73a30ba34b7b760911b8152508152602001604051806040016040528060048152602001631253541360e21b815250815260200161dead6001600160a01b031681526020016040518060400160405280601781526020017f496d706c656d656e746174696f6e20636f6e747261637400000000000000000081525081526020015f81526020015f81526020015f81526020015f81526020015f81526020015f81526020015f81526020015f815260200160405180602001604052805f815250815250905090565b60026102ee82826103e8565b5050565b600380546001600160a01b038381166001600160a01b0319831681179093556040519116919082907f8be0079c531659141344cd1fd0a4f28419497f9722a3daafe3b4186f6b6457e0905f90a35050565b6105398061329c83390190565b634e487b7160e01b5f52604160045260245ffd5b600181811c9082168061037857607f821691505b60208210810361039657634e487b7160e01b5f52602260045260245ffd5b50919050565b601f8211156103e357805f5260205f20601f840160051c810160208510156103c15750805b601f840160051c820191505b818110156103e0575f81556001016103cd565b50505b505050565b81516001600160401b0381111561040157610401610350565b6104158161040f8454610364565b8461039c565b6020601f821160018114610447575f83156104305750848201515b5f19600385901b1c1916600184901b1784556103e0565b5f84815260208120601f198516915b828110156104765787850151825560209485019460019092019101610456565b508482101561049357868401515f19600387901b60f8161c191681555b50505050600190811b01905550565b808201808211156104c157634e487b7160e01b5f52601160045260245ffd5b92915050565b612dc8806104d45f395ff3fe6080604052600436106102d8575f3560e01c8063744dab3811610189578063b58a0ffe116100d8578063e066fb7d11610092578063f242432a1161006d578063f242432a1461081b578063f2fde38b1461083a578063fb3c6f9714610859578063fbb99a2b14610878575f5ffd5b8063e066fb7d146107d4578063e985e9c5146107e8578063eedbe31d14610807575f5ffd5b8063b58a0ffe1461070c578063b7d08c5c14610720578063c934c4ab14610757578063d304682f1461076c578063dd68eb1f1461078c578063dddf10b4146107c0575f5ffd5b80639280d125116101435780639bda28691161011e5780639bda2869146106a85780639cfa6883146106bc578063a22cb465146106d9578063a7f93ebd146106f8575f5ffd5b80639280d1251461066a57806395d89b411461067f578063981aa14414610693575f5ffd5b8063744dab38146105ca57806375c4215d146105de578063820bdcdc146105f157806382d8a1181461060557806388ec35d91461061a5780638da5cb5b14610639575f5ffd5b80633595bf17116102455780635207c273116101ff5780636202f55c116101da5780636202f55c1461056b5780636f573f5114610580578063715018a6146105a157806371c123df146105b5575f5ffd5b80635207c27314610523578063589487a2146105425780635d64184714610556575f5ffd5b80633595bf1714610479578063375ee5261461048e57806340c10f19146104bc5780634c0f38c2146104cf5780634e1273f4146104e35780634ef897191461050f575f5ffd5b80631de4f619116102965780631de4f619146103a5578063282f6cf5146103ba57806329d0fdc0146103cf5780632a55205a146104065780632b9fcb96146104445780632eb2c2d614610458575f5ffd5b8062fdd58e146102dc57806301ffc9a71461030e57806306fdde031461033d5780630ca1c5c91461035e5780630e89341c146103725780631a09254114610391575b5f5ffd5b3480156102e7575f5ffd5b506102fb6102f6366004611e64565b6108a3565b6040519081526020015b60405180910390f35b348015610319575f5ffd5b5061032d610328366004611ea3565b6108ca565b6040519015158152602001610305565b348015610348575f5ffd5b506103516108ee565b6040516103059190611eec565b348015610369575f5ffd5b506009546102fb565b34801561037d575f5ffd5b5061035161038c366004611efe565b61097e565b34801561039c575f5ffd5b50610351610989565b3480156103b0575f5ffd5b506102fb600a5481565b3480156103c5575f5ffd5b506102fb60055481565b3480156103da575f5ffd5b5061032d6103e9366004611f15565b6001600160a01b03165f9081526011602052604090205460ff1690565b348015610411575f5ffd5b50610425610420366004611f30565b610998565b604080516001600160a01b039093168352602083019190915201610305565b34801561044f575f5ffd5b506008546102fb565b348015610463575f5ffd5b506104776104723660046120ba565b610a18565b005b348015610484575f5ffd5b506102fb600f5481565b348015610499575f5ffd5b5061032d6104a8366004611f15565b60116020525f908152604090205460ff1681565b6104776104ca366004611e64565b610a84565b3480156104da575f5ffd5b506006546102fb565b3480156104ee575f5ffd5b506105026104fd36600461216a565b610b73565b6040516103059190612267565b34801561051a575f5ffd5b50610351610c3d565b34801561052e575f5ffd5b5061047761053d366004612279565b610cc9565b34801561054d575f5ffd5b506010546102fb565b348015610561575f5ffd5b506102fb60065481565b348015610576575f5ffd5b506102fb600e5481565b34801561058b575f5ffd5b50610594610d3b565b604051610305919061231c565b3480156105ac575f5ffd5b50610477610d55565b3480156105c0575f5ffd5b506102fb60085481565b3480156105d5575f5ffd5b50600f546102fb565b6104776105ec366004611e64565b610d68565b3480156105fc575f5ffd5b50600a546102fb565b348015610610575f5ffd5b506102fb60125481565b348015610625575f5ffd5b5061047761063436600461232a565b610de8565b348015610644575f5ffd5b506003546001600160a01b03165b6040516001600160a01b039091168152602001610305565b348015610675575f5ffd5b506102fb60105481565b34801561068a575f5ffd5b50610351610ea6565b34801561069e575f5ffd5b506102fb60075481565b3480156106b3575f5ffd5b506007546102fb565b3480156106c7575f5ffd5b50600d546001600160a01b0316610652565b3480156106e4575f5ffd5b506104776106f336600461247a565b610eb5565b348015610703575f5ffd5b506102fb610ec4565b348015610717575f5ffd5b50610351610efb565b34801561072b575f5ffd5b5061073f61073a366004611f15565b610f08565b6040516103059c9b9a999897969594939291906124b5565b348015610762575f5ffd5b506102fb60095481565b348015610777575f5ffd5b50600d5461059490600160a01b900460ff1681565b348015610797575f5ffd5b506102fb6107a6366004611f15565b6001600160a01b03165f908152600c602052604090205490565b3480156107cb575f5ffd5b50610477610fcb565b3480156107df575f5ffd5b50600e546102fb565b3480156107f3575f5ffd5b5061032d61080236600461251e565b611081565b348015610812575f5ffd5b506105946110ae565b348015610826575f5ffd5b5061047761083536600461254a565b6110bc565b348015610845575f5ffd5b50610477610854366004611f15565b61111b565b348015610864575f5ffd5b50600d54610652906001600160a01b031681565b348015610883575f5ffd5b506102fb610892366004611f15565b600c6020525f908152604090205481565b5f818152602081815260408083206001600160a01b03861684529091529020545b92915050565b5f6001600160e01b0319821663152a902d60e11b14806108c457506108c482611155565b6060601380546108fd906125a1565b80601f0160208091040260200160405190810160405280929190818152602001828054610929906125a1565b80156109745780601f1061094b57610100808354040283529160200191610974565b820191905f5260205f20905b81548152906001019060200180831161095757829003601f168201915b5050505050905090565b60606108c4826111a4565b6060600480546108fd906125a1565b600d5460405163152a902d60e11b815260048101849052602481018390525f9182916001600160a01b0390911690632a55205a906044016040805180830381865afa1580156109e9573d5f5f3e3d5ffd5b505050506040513d601f19601f82011682018060405250810190610a0d91906125d9565b915091509250929050565b336001600160a01b0386168114801590610a395750610a378682611081565b155b15610a6f5760405163711bec9160e11b81526001600160a01b038083166004830152871660248201526044015b60405180910390fd5b610a7c8686868686611236565b505050505050565b5f610a8f838361129b565b905080341015610ab2576040516343e65e4960e11b815260040160405180910390fd5b5f6012546001610ac29190612619565b9050806012819055508260095f828254610adc9190612619565b90915550506001600160a01b0384165f908152600c602052604081208054859290610b08908490612619565b92505081905550610b2984828560405180602001604052805f8152506112b6565b80846001600160a01b03167f25b428dfde728ccfaddad7e29e4ac23c24ed7fd1a6e3e3f91894a9a073f5dfff85604051610b6591815260200190565b60405180910390a350505050565b60608151835114610ba45781518351604051635b05999160e01b815260048101929092526024820152604401610a66565b5f83516001600160401b03811115610bbe57610bbe611f50565b604051908082528060200260200182016040528015610be7578160200160208202803683370190505b5090505f5b8451811015610c3557602080820286010151610c10906020808402870101516108a3565b828281518110610c2257610c2261262c565b6020908102919091010152600101610bec565b509392505050565b60048054610c4a906125a1565b80601f0160208091040260200160405190810160405280929190818152602001828054610c76906125a1565b8015610cc15780601f10610c9857610100808354040283529160200191610cc1565b820191905f5260205f20905b815481529060010190602001808311610ca457829003601f168201915b505050505081565b610cd1611311565b5f5b81811015610d3657600160115f858585818110610cf257610cf261262c565b9050602002016020810190610d079190611f15565b6001600160a01b0316815260208101919091526040015f20805460ff1916911515919091179055600101610cd3565b505050565b5f610d44610fcb565b50600d54600160a01b900460ff1690565b610d5d611311565b610d665f61133e565b565b5f610d73838361129b565b905080341015610d96576040516343e65e4960e11b815260040160405180910390fd5b610da0838361138f565b826001600160a01b03167f6174e73d7eb2fee6c482f87f81961b83cfa577f50c963bd1516f282497260fcd83604051610ddb91815260200190565b60405180910390a2505050565b60155460ff1615610e315760405162461bcd60e51b8152602060048201526013602482015272105b1c9958591e481a5b9a5d1a585b1a5e9959606a1b6044820152606401610a66565b60408101516001600160a01b0316610e805760405162461bcd60e51b81526020600482015260126024820152712d32b9379030b2323932b9b99037bbb732b960711b6044820152606401610a66565b6015805460ff19166001179055610e96816114ef565b610ea3816040015161133e565b50565b6060601480546108fd906125a1565b610ec03383836115ef565b5050565b5f5f610ece611683565b90506001816002811115610ee457610ee46122e8565b14610ef157600f54610ef5565b600e545b91505090565b600b8054610c4a906125a1565b6008546010544291905f8080808080808080610f22611683565b98506001896002811115610f3857610f386122e8565b14610f4557600f54610f49565b600e545b9750600e549650600f54955060095494506006549350600c5f8e6001600160a01b03166001600160a01b031681526020019081526020015f20549250600754915060115f8e6001600160a01b03166001600160a01b031681526020019081526020015f205f9054906101000a900460ff16905091939597999b5091939597999b565b5f610fd4611683565b600d54909150600160a01b900460ff166002811115610ff557610ff56122e8565b816002811115611007576110076122e8565b14610ea357600d805482919060ff60a01b1916600160a01b836002811115611031576110316122e8565b02179055507f5d5f43e2ea4473dc52ad8846c20d237f20238a8c304e2a3684e4bac491aa619e600d60149054906101000a900460ff1642604051611076929190612640565b60405180910390a150565b6001600160a01b039182165f90815260016020908152604080832093909416825291909152205460ff1690565b5f6110b7611683565b905090565b336001600160a01b03861681148015906110dd57506110db8682611081565b155b1561110e5760405163711bec9160e11b81526001600160a01b03808316600483015287166024820152604401610a66565b610a7c86868686866116a9565b611123611311565b6001600160a01b03811661114c57604051631e4fbdf760e01b81525f6004820152602401610a66565b610ea38161133e565b5f6001600160e01b03198216636cdb3d1360e11b148061118557506001600160e01b031982166303a24d0760e21b145b806108c457506301ffc9a760e01b6001600160e01b03198316146108c4565b6060600280546111b3906125a1565b80601f01602080910402602001604051908101604052809291908181526020018280546111df906125a1565b801561122a5780601f106112015761010080835404028352916020019161122a565b820191905f5260205f20905b81548152906001019060200180831161120d57829003601f168201915b50505050509050919050565b6001600160a01b03841661125f57604051632bfa23e760e11b81525f6004820152602401610a66565b6001600160a01b03851661128757604051626a0d4560e21b81525f6004820152602401610a66565b6112948585858585611735565b5050505050565b5f6112a68383611788565b6112af8261196e565b9392505050565b6001600160a01b0384166112df57604051632bfa23e760e11b81525f6004820152602401610a66565b60408051600180825260208201869052818301908152606082018590526080820190925290610a7c5f87848487611735565b6003546001600160a01b03163314610d665760405163118cdaa760e01b8152336004820152602401610a66565b600380546001600160a01b038381166001600160a01b0319831681179093556040519116919082907f8be0079c531659141344cd1fd0a4f28419497f9722a3daafe3b4186f6b6457e0905f90a35050565b6012545f826001600160401b038111156113ab576113ab611f50565b6040519080825280602002602001820160405280156113d4578160200160208202803683370190505b5090505f836001600160401b038111156113f0576113f0611f50565b604051908082528060200260200182016040528015611419578160200160208202803683370190505b5090505f5b84811015611480576114308185612619565b61143b906001612619565b83828151811061144d5761144d61262c565b602002602001018181525050600182828151811061146d5761146d61262c565b602090810291909101015260010161141e565b5061148b8484612619565b6012819055508360095f8282546114a29190612619565b90915550506001600160a01b0385165f908152600c6020526040812080548692906114ce908490612619565b9250508190555061129485838360405180602001604052805f8152506119d4565b6060810151600490611501908261269f565b50608081015160055560c081015160065560e08101516007556101008101516008819055610120820151600e55610140820151600f5561016082015161154691612619565b601055600d805460ff60a01b19169055610180810151600b90611569908261269f565b5060a0810151600a8190555f6009819055601255604080830151905190919061159190611e33565b6001600160a01b0390921682526020820152604001604051809103905ff0801580156115bf573d5f5f3e3d5ffd5b50600d80546001600160a01b0319166001600160a01b0392909216919091179055610180810151610ea390611a10565b6001600160a01b0382166116175760405162ced3e160e81b81525f6004820152602401610a66565b6001600160a01b038381165f81815260016020908152604080832094871680845294825291829020805460ff191686151590811790915591519182527f17307eab39ab6107e8899845ad3d59bd9653f200f220920489ca2b5937696c31910160405180910390a3505050565b5f60085442101561169357505f90565b6010544210156116a35750600190565b50600290565b6001600160a01b0384166116d257604051632bfa23e760e11b81525f6004820152602401610a66565b6001600160a01b0385166116fa57604051626a0d4560e21b81525f6004820152602401610a66565b6040805160018082526020820186905281830190815260608201859052608082019092529061172c8787848487611735565b50505050505050565b61174185858585611a1c565b6001600160a01b03841615611294578251339060010361177a5760208481015190840151611773838989858589611c2b565b5050610a7c565b610a7c818787878787611d4c565b5f611791611683565b600d54909150600160a01b900460ff1660028111156117b2576117b26122e8565b8160028111156117c4576117c46122e8565b1461183c57600d805482919060ff60a01b1916600160a01b8360028111156117ee576117ee6122e8565b02179055507f5d5f43e2ea4473dc52ad8846c20d237f20238a8c304e2a3684e4bac491aa619e600d60149054906101000a900460ff1642604051611833929190612640565b60405180910390a15b60085442101561185f57604051633f6fbd0760e01b815260040160405180910390fd5b5f600d54600160a01b900460ff16600281111561187e5761187e6122e8565b0361189c57604051630755957160e21b815260040160405180910390fd5b6007546001600160a01b0384165f908152600c60205260409020546118c2908490612619565b11156118e15760405163e880fa1b60e01b815260040160405180910390fd5b600654826009546118f29190612619565b11156119115760405163e880fa1b60e01b815260040160405180910390fd5b6001600d54600160a01b900460ff166002811115611931576119316122e8565b03610d36576001600160a01b0383165f9081526011602052604090205460ff16610d365760405163f501eed560e01b815260040160405180910390fd5b5f815f0361198f57604051631562f6f760e11b815260040160405180910390fd5b5f611998611683565b905060018160028111156119ae576119ae6122e8565b146119c65782600f546119c19190612759565b6112af565b82600e546112af9190612759565b6001600160a01b0384166119fd57604051632bfa23e760e11b81525f6004820152602401610a66565b611a0a5f85858585611735565b50505050565b6002610ec0828261269f565b8051825114611a4b5781518151604051635b05999160e01b815260048101929092526024820152604401610a66565b335f5b8351811015611b4d576020818102858101820151908501909101516001600160a01b03881615611aff575f828152602081815260408083206001600160a01b038c16845290915290205481811015611ad9576040516303dee4c560e01b81526001600160a01b038a166004820152602481018290526044810183905260648101849052608401610a66565b5f838152602081815260408083206001600160a01b038d16845290915290209082900390555b6001600160a01b03871615611b43575f828152602081815260408083206001600160a01b038b16845290915281208054839290611b3d908490612619565b90915550505b5050600101611a4e565b508251600103611bcd5760208301515f906020840151909150856001600160a01b0316876001600160a01b0316846001600160a01b03167fc3d58168c5ae7397731d063d5bbf3d657854427343f4c083240f7aacaa2d0f628585604051611bbe929190918252602082015260400190565b60405180910390a45050611294565b836001600160a01b0316856001600160a01b0316826001600160a01b03167f4a39dc06d4c0dbc64b70af90fd698a233a518aa5d07e595d983b8c0526c8f7fb8686604051611c1c929190612770565b60405180910390a45050505050565b6001600160a01b0384163b15610a7c5760405163f23a6e6160e01b81526001600160a01b0385169063f23a6e6190611c6f908990899088908890889060040161279d565b6020604051808303815f875af1925050508015611ca9575060408051601f3d908101601f19168201909252611ca6918101906127e1565b60015b611d10573d808015611cd6576040519150601f19603f3d011682016040523d82523d5f602084013e611cdb565b606091505b5080515f03611d0857604051632bfa23e760e11b81526001600160a01b0386166004820152602401610a66565b805160208201fd5b6001600160e01b0319811663f23a6e6160e01b1461172c57604051632bfa23e760e11b81526001600160a01b0386166004820152602401610a66565b6001600160a01b0384163b15610a7c5760405163bc197c8160e01b81526001600160a01b0385169063bc197c8190611d9090899089908890889088906004016127fc565b6020604051808303815f875af1925050508015611dca575060408051601f3d908101601f19168201909252611dc7918101906127e1565b60015b611df7573d808015611cd6576040519150601f19603f3d011682016040523d82523d5f602084013e611cdb565b6001600160e01b0319811663bc197c8160e01b1461172c57604051632bfa23e760e11b81526001600160a01b0386166004820152602401610a66565b6105398061285a83390190565b6001600160a01b0381168114610ea3575f5ffd5b8035611e5f81611e40565b919050565b5f5f60408385031215611e75575f5ffd5b8235611e8081611e40565b946020939093013593505050565b6001600160e01b031981168114610ea3575f5ffd5b5f60208284031215611eb3575f5ffd5b81356112af81611e8e565b5f81518084528060208401602086015e5f602082860101526020601f19601f83011685010191505092915050565b602081525f6112af6020830184611ebe565b5f60208284031215611f0e575f5ffd5b5035919050565b5f60208284031215611f25575f5ffd5b81356112af81611e40565b5f5f60408385031215611f41575f5ffd5b50508035926020909101359150565b634e487b7160e01b5f52604160045260245ffd5b6040516101a081016001600160401b0381118282101715611f8757611f87611f50565b60405290565b604051601f8201601f191681016001600160401b0381118282101715611fb557611fb5611f50565b604052919050565b5f6001600160401b03821115611fd557611fd5611f50565b5060051b60200190565b5f82601f830112611fee575f5ffd5b8135612001611ffc82611fbd565b611f8d565b8082825260208201915060208360051b860101925085831115612022575f5ffd5b602085015b8381101561203f578035835260209283019201612027565b5095945050505050565b5f82601f830112612058575f5ffd5b8135602083015f5f6001600160401b0384111561207757612077611f50565b50601f8301601f191660200161208c81611f8d565b9150508281528583830111156120a0575f5ffd5b828260208301375f92810160200192909252509392505050565b5f5f5f5f5f60a086880312156120ce575f5ffd5b85356120d981611e40565b945060208601356120e981611e40565b935060408601356001600160401b03811115612103575f5ffd5b61210f88828901611fdf565b93505060608601356001600160401b0381111561212a575f5ffd5b61213688828901611fdf565b92505060808601356001600160401b03811115612151575f5ffd5b61215d88828901612049565b9150509295509295909350565b5f5f6040838503121561217b575f5ffd5b82356001600160401b03811115612190575f5ffd5b8301601f810185136121a0575f5ffd5b80356121ae611ffc82611fbd565b8082825260208201915060208360051b8501019250878311156121cf575f5ffd5b6020840193505b828410156121fa5783356121e981611e40565b8252602093840193909101906121d6565b945050505060208301356001600160401b03811115612217575f5ffd5b61222385828601611fdf565b9150509250929050565b5f8151808452602084019350602083015f5b8281101561225d57815186526020958601959091019060010161223f565b5093949350505050565b602081525f6112af602083018461222d565b5f5f6020838503121561228a575f5ffd5b82356001600160401b0381111561229f575f5ffd5b8301601f810185136122af575f5ffd5b80356001600160401b038111156122c4575f5ffd5b8560208260051b84010111156122d8575f5ffd5b6020919091019590945092505050565b634e487b7160e01b5f52602160045260245ffd5b6003811061231857634e487b7160e01b5f52602160045260245ffd5b9052565b602081016108c482846122fc565b5f6020828403121561233a575f5ffd5b81356001600160401b0381111561234f575f5ffd5b82016101a08185031215612361575f5ffd5b612369611f64565b81356001600160401b0381111561237e575f5ffd5b61238a86828501612049565b82525060208201356001600160401b038111156123a5575f5ffd5b6123b186828501612049565b6020830152506123c360408301611e54565b604082015260608201356001600160401b038111156123e0575f5ffd5b6123ec86828501612049565b6060830152506080828101359082015260a0808301359082015260c0808301359082015260e0808301359082015261010080830135908201526101208083013590820152610140808301359082015261016080830135908201526101808201356001600160401b0381111561245f575f5ffd5b61246b86828501612049565b61018083015250949350505050565b5f5f6040838503121561248b575f5ffd5b823561249681611e40565b9150602083013580151581146124aa575f5ffd5b809150509250929050565b8c8152602081018c9052604081018b905261018081016124d8606083018c6122fc565b608082019990995260a081019790975260c087019590955260e0860193909352610100850191909152610120840152610140830152151561016090910152949350505050565b5f5f6040838503121561252f575f5ffd5b823561253a81611e40565b915060208301356124aa81611e40565b5f5f5f5f5f60a0868803121561255e575f5ffd5b853561256981611e40565b9450602086013561257981611e40565b9350604086013592506060860135915060808601356001600160401b03811115612151575f5ffd5b600181811c908216806125b557607f821691505b6020821081036125d357634e487b7160e01b5f52602260045260245ffd5b50919050565b5f5f604083850312156125ea575f5ffd5b82516125f581611e40565b6020939093015192949293505050565b634e487b7160e01b5f52601160045260245ffd5b808201808211156108c4576108c4612605565b634e487b7160e01b5f52603260045260245ffd5b6040810161264e82856122fc565b8260208301529392505050565b601f821115610d3657805f5260205f20601f840160051c810160208510156126805750805b601f840160051c820191505b81811015611294575f815560010161268c565b81516001600160401b038111156126b8576126b8611f50565b6126cc816126c684546125a1565b8461265b565b6020601f8211600181146126fe575f83156126e75750848201515b5f19600385901b1c1916600184901b178455611294565b5f84815260208120601f198516915b8281101561272d578785015182556020948501946001909201910161270d565b508482101561274a57868401515f19600387901b60f8161c191681555b50505050600190811b01905550565b80820281158282048414176108c4576108c4612605565b604081525f612782604083018561222d565b8281036020840152612794818561222d565b95945050505050565b6001600160a01b03868116825285166020820152604081018490526060810183905260a0608082018190525f906127d690830184611ebe565b979650505050505050565b5f602082840312156127f1575f5ffd5b81516112af81611e8e565b6001600160a01b0386811682528516602082015260a0604082018190525f906128279083018661222d565b8281036060840152612839818661222d565b9050828103608084015261284d8185611ebe565b9897505050505050505056fe608060405234801561000f575f5ffd5b5060405161053938038061053983398101604081905261002e916100e1565b816001600160a01b03811661005c57604051631e4fbdf760e01b81525f600482015260240160405180910390fd5b61006581610092565b5061271081111561008957604051637c9e216d60e01b815260040160405180910390fd5b60015550610118565b5f80546001600160a01b038381166001600160a01b0319831681178455604051919092169283917f8be0079c531659141344cd1fd0a4f28419497f9722a3daafe3b4186f6b6457e09190a35050565b5f5f604083850312156100f2575f5ffd5b82516001600160a01b0381168114610108575f5ffd5b6020939093015192949293505050565b610414806101255f395ff3fe608060405234801561000f575f5ffd5b5060043610610085575f3560e01c8063715018a611610058578063715018a61461010f578063820bdcdc146101175780638da5cb5b1461011f578063f2fde38b14610139575f5ffd5b806301ffc9a7146100895780631de4f619146100b15780632a55205a146100c85780633e4086e5146100fa575b5f5ffd5b61009c610097366004610311565b61014c565b60405190151581526020015b60405180910390f35b6100ba60015481565b6040519081526020016100a8565b6100db6100d636600461033f565b610182565b604080516001600160a01b0390931683526020830191909152016100a8565b61010d61010836600461035f565b6101bb565b005b61010d610241565b6001546100ba565b5f546040516001600160a01b0390911681526020016100a8565b61010d610147366004610376565b610254565b5f6001600160e01b0319821663152a902d60e11b148061017c57506301ffc9a760e01b6001600160e01b03198316145b92915050565b5f5f6101955f546001600160a01b031690565b612710600154856101a6919061039c565b6101b091906103bf565b915091509250929050565b6101c3610296565b6127108111156101e657604051637c9e216d60e01b815260040160405180910390fd5b600181905560408051818152600a8183015269726f79616c747946656560b01b60608201526020810183905290517fc5dbbc1a39078c6d41f75645288952af1adce3154214371d76e77356656424539181900360800190a150565b610249610296565b6102525f6102c2565b565b61025c610296565b6001600160a01b03811661028a57604051631e4fbdf760e01b81525f60048201526024015b60405180910390fd5b610293816102c2565b50565b5f546001600160a01b031633146102525760405163118cdaa760e01b8152336004820152602401610281565b5f80546001600160a01b038381166001600160a01b0319831681178455604051919092169283917f8be0079c531659141344cd1fd0a4f28419497f9722a3daafe3b4186f6b6457e09190a35050565b5f60208284031215610321575f5ffd5b81356001600160e01b031981168114610338575f5ffd5b9392505050565b5f5f60408385031215610350575f5ffd5b50508035926020909101359150565b5f6020828403121561036f575f5ffd5b5035919050565b5f60208284031215610386575f5ffd5b81356001600160a01b0381168114610338575f5ffd5b808202811582820484141761017c57634e487b7160e01b5f52601160045260245ffd5b5f826103d957634e487b7160e01b5f52601260045260245ffd5b50049056fea26469706673582212205396525c79a551fb93ba2c52574a83c2f928444f860ba2944f5e89b2a678a6b464736f6c634300081e0033a2646970667358221220d01257d9f5ef1f8f091a7e64332461acac1fcba0d00a4dd990fac51da819ddeb64736f6c634300081e0033608060405234801561000f575f5ffd5b5060405161053938038061053983398101604081905261002e916100e1565b816001600160a01b03811661005c57604051631e4fbdf760e01b81525f600482015260240160405180910390fd5b61006581610092565b5061271081111561008957604051637c9e216d60e01b815260040160405180910390fd5b60015550610118565b5f80546001600160a01b038381166001600160a01b0319831681178455604051919092169283917f8be0079c531659141344cd1fd0a4f28419497f9722a3daafe3b4186f6b6457e09190a35050565b5f5f604083850312156100f2575f5ffd5b82516001600160a01b0381168114610108575f5ffd5b6020939093015192949293505050565b610414806101255f395ff3fe608060405234801561000f575f5ffd5b5060043610610085575f3560e01c8063715018a611610058578063715018a61461010f578063820bdcdc146101175780638da5cb5b1461011f578063f2fde38b14610139575f5ffd5b806301ffc9a7146100895780631de4f619146100b15780632a55205a146100c85780633e4086e5146100fa575b5f5ffd5b61009c610097366004610311565b61014c565b60405190151581526020015b60405180910390f35b6100ba60015481565b6040519081526020016100a8565b6100db6100d636600461033f565b610182565b604080516001600160a01b0390931683526020830191909152016100a8565b61010d61010836600461035f565b6101bb565b005b61010d610241565b6001546100ba565b5f546040516001600160a01b0390911681526020016100a8565b61010d610147366004610376565b610254565b5f6001600160e01b0319821663152a902d60e11b148061017c57506301ffc9a760e01b6001600160e01b03198316145b92915050565b5f5f6101955f546001600160a01b031690565b612710600154856101a6919061039c565b6101b091906103bf565b915091509250929050565b6101c3610296565b6127108111156101e657604051637c9e216d60e01b815260040160405180910390fd5b600181905560408051818152600a8183015269726f79616c747946656560b01b60608201526020810183905290517fc5dbbc1a39078c6d41f75645288952af1adce3154214371d76e77356656424539181900360800190a150565b610249610296565b6102525f6102c2565b565b61025c610296565b6001600160a01b03811661028a57604051631e4fbdf760e01b81525f60048201526024015b60405180910390fd5b610293816102c2565b50565b5f546001600160a01b031633146102525760405163118cdaa760e01b8152336004820152602401610281565b5f80546001600160a01b038381166001600160a01b0319831681178455604051919092169283917f8be0079c531659141344cd1fd0a4f28419497f9722a3daafe3b4186f6b6457e09190a35050565b5f60208284031215610321575f5ffd5b81356001600160e01b031981168114610338575f5ffd5b9392505050565b5f5f60408385031215610350575f5ffd5b50508035926020909101359150565b5f6020828403121561036f575f5ffd5b5035919050565b5f60208284031215610386575f5ffd5b81356001600160a01b0381168114610338575f5ffd5b808202811582820484141761017c57634e487b7160e01b5f52601160045260245ffd5b5f826103d957634e487b7160e01b5f52601260045260245ffd5b50049056fea26469706673582212205396525c79a551fb93ba2c52574a83c2f928444f860ba2944f5e89b2a678a6b464736f6c634300081e0033",
    "linkReferences": {}
  },
  "methodIdentifiers": {
    "contractType()": "cb2ef6f7",
    "createERC1155Collection((string,string,address,string,uint256,uint256,uint256,uint256,uint256,uint256,uint256,uint256,string))": "f97208fa",
    "erc1155CollectionImplementation()": "8585942f",
    "getSupportedStandards()": "c71586d5",
    "getTotalCollections()": "939bf6dd",
    "isActive()": "22f3e2d4",
    "isValidCollection(address)": "75900e6a",
    "supportsInterface(bytes4)": "01ffc9a7",
    "version()": "54fd4d50"
  },
  "id": 75
}