{
  "abi": [
    {
      "type": "constructor",
      "inputs": [],
      "stateMutability": "nonpayable"
    },
    {
      "type": "function",
      "name": "contractType",
      "inputs": [],
      "outputs": [
        {
          "name": "",
          "type": "string",
          "internalType": "string"
        }
      ],
      "stateMutability": "pure"
    },
    {
      "type": "function",
      "name": "createERC721Collection",
      "inputs": [
        {
          "name": "params",
          "type": "tuple",
          "internalType": "struct CollectionParams",
          "components": [
            {
              "name": "name",
              "type": "string",
              "internalType": "string"
            },
            {
              "name": "symbol",
              "type": "string",
              "internalType": "string"
            },
            {
              "name": "owner",
              "type": "address",
              "internalType": "address"
            },
            {
              "name": "description",
              "type": "string",
              "internalType": "string"
            },
            {
              "name": "mintPrice",
              "type": "uint256",
              "internalType": "uint256"
            },
            {
              "name": "royaltyFee",
              "type": "uint256",
              "internalType": "uint256"
            },
            {
              "name": "maxSupply",
              "type": "uint256",
              "internalType": "uint256"
            },
            {
              "name": "mintLimitPerWallet",
              "type": "uint256",
              "internalType": "uint256"
            },
            {
              "name": "mintStartTime",
              "type": "uint256",
              "internalType": "uint256"
            },
            {
              "name": "allowlistMintPrice",
              "type": "uint256",
              "internalType": "uint256"
            },
            {
              "name": "publicMintPrice",
              "type": "uint256",
              "internalType": "uint256"
            },
            {
              "name": "allowlistStageDuration",
              "type": "uint256",
              "internalType": "uint256"
            },
            {
              "name": "tokenURI",
              "type": "string",
              "internalType": "string"
            }
          ]
        }
      ],
      "outputs": [
        {
          "name": "",
          "type": "address",
          "internalType": "address"
        }
      ],
      "stateMutability": "nonpayable"
    },
    {
      "type": "function",
      "name": "erc721CollectionImplementation",
      "inputs": [],
      "outputs": [
        {
          "name": "",
          "type": "address",
          "internalType": "address"
        }
      ],
      "stateMutability": "view"
    },
    {
      "type": "function",
      "name": "getSupportedStandards",
      "inputs": [],
      "outputs": [
        {
          "name": "",
          "type": "string[]",
          "internalType": "string[]"
        }
      ],
      "stateMutability": "pure"
    },
    {
      "type": "function",
      "name": "getTotalCollections",
      "inputs": [],
      "outputs": [
        {
          "name": "",
          "type": "uint256",
          "internalType": "uint256"
        }
      ],
      "stateMutability": "view"
    },
    {
      "type": "function",
      "name": "isActive",
      "inputs": [],
      "outputs": [
        {
          "name": "",
          "type": "bool",
          "internalType": "bool"
        }
      ],
      "stateMutability": "pure"
    },
    {
      "type": "function",
      "name": "isValidCollection",
      "inputs": [
        {
          "name": "collection",
          "type": "address",
          "internalType": "address"
        }
      ],
      "outputs": [
        {
          "name": "",
          "type": "bool",
          "internalType": "bool"
        }
      ],
      "stateMutability": "view"
    },
    {
      "type": "function",
      "name": "supportsInterface",
      "inputs": [
        {
          "name": "interfaceId",
          "type": "bytes4",
          "internalType": "bytes4"
        }
      ],
      "outputs": [
        {
          "name": "",
          "type": "bool",
          "internalType": "bool"
        }
      ],
      "stateMutability": "view"
    },
    {
      "type": "function",
      "name": "version",
      "inputs": [],
      "outputs": [
        {
          "name": "",
          "type": "string",
          "internalType": "string"
        }
      ],
      "stateMutability": "pure"
    },
    {
      "type": "event",
      "name": "ERC721CollectionCreated",
      "inputs": [
        {
          "name": "collectionAddress",
          "type": "address",
          "indexed": true,
          "internalType": "address"
        },
        {
          "name": "creator",
          "type": "address",
          "indexed": true,
          "internalType": "address"
        }
      ],
      "anonymous": false
    },
    {
      "type": "event",
      "name": "ImplementationDeployed",
      "inputs": [
        {
          "name": "implementation",
          "type": "address",
          "indexed": true,
          "internalType": "address"
        }
      ],
      "anonymous": false
    },
    {
      "type": "error",
      "name": "FailedDeployment",
      "inputs": []
    },
    {
      "type": "error",
      "name": "InsufficientBalance",
      "inputs": [
        {
          "name": "balance",
          "type": "uint256",
          "internalType": "uint256"
        },
        {
          "name": "needed",
          "type": "uint256",
          "internalType": "uint256"
        }
      ]
    }
  ],
  "bytecode": {
    "object": "0x60a0604052348015600e575f5ffd5b50604051601990606c565b604051809103905ff0801580156031573d5f5f3e3d5ffd5b506001600160a01b031660808190526040517fc86adeccdfd5b96c99a63be33cf8547313ccd17729b48f0572a9fa0cd23ff710905f90a26079565b61346480610a4483390190565b6080516109ad6100975f395f818160c801526103c801526109ad5ff3fe608060405234801561000f575f5ffd5b5060043610610090575f3560e01c806375900e6a1161006357806375900e6a1461012c578063939bf6dd14610157578063a61b212f14610168578063c71586d51461017b578063cb2ef6f714610190575f5ffd5b806301ffc9a71461009457806322f3e2d4146100bc5780632451ebc9146100c357806354fd4d5014610102575b5f5ffd5b6100a76100a236600461052c565b6101c9565b60405190151581526020015b60405180910390f35b60016100a7565b6100ea7f000000000000000000000000000000000000000000000000000000000000000081565b6040516001600160a01b0390911681526020016100b3565b6040805180820190915260058152640312e302e360dc1b60208201525b6040516100b39190610588565b6100a761013a3660046105b0565b6001600160a01b03165f9081526020819052604090205460ff1690565b6001546040519081526020016100b3565b6100ea610176366004610692565b6101ff565b610183610209565b6040516100b391906107e7565b60408051808201909152601781527f455243373231436f6c6c656374696f6e466163746f7279000000000000000000602082015261011f565b5f6001600160e01b0319821663108f3f3160e11b14806101f957506301ffc9a760e01b6001600160e01b03198316145b92915050565b5f6101f98261027b565b6040805160018082528183019092526060915f9190816020015b60608152602001906001900390816102235790505090506040518060400160405280600681526020016545524337323160d01b815250815f8151811061026b5761026b61084a565b6020908102919091010152919050565b5f610285826102a7565b61028d6103c2565b905061029981836103f1565b6102a28161044e565b919050565b60408101516001600160a01b03166102fb5760405162461bcd60e51b81526020600482015260126024820152712d32b9379030b2323932b9b99037bbb732b960711b60448201526064015b60405180910390fd5b8051516103375760405162461bcd60e51b815260206004820152600a602482015269456d707479206e616d6560b01b60448201526064016102f2565b5f8160200151511161037a5760405162461bcd60e51b815260206004820152600c60248201526b115b5c1d1e481cde5b589bdb60a21b60448201526064016102f2565b5f8160c00151116103bf5760405162461bcd60e51b815260206004820152600f60248201526e5a65726f206d617820737570706c7960881b60448201526064016102f2565b50565b5f6103ec7f00000000000000000000000000000000000000000000000000000000000000006104bc565b905090565b6040516388ec35d960e01b81526001600160a01b038316906388ec35d99061041d90849060040161085e565b5f604051808303815f87803b158015610434575f5ffd5b505af1158015610446573d5f5f3e3d5ffd5b505050505050565b6001600160a01b0381165f908152602081905260408120805460ff1916600190811790915580549161047f83610953565b909155505060405133906001600160a01b038316907f377ed24080182038060fc1a37945d17d0e9eea8fe03571594bf5813ecb7e710b905f90a350565b5f6101f9828280763d602d80600a3d3981f3363d3d373d3d3d363d730000008360601b60e81c175f526e5af43d82803e903d91602b57fd5bf38360781b176020526037600983f090506001600160a01b0381166101f95760405163b06ebf3d60e01b815260040160405180910390fd5b5f6020828403121561053c575f5ffd5b81356001600160e01b031981168114610553575f5ffd5b9392505050565b5f81518084528060208401602086015e5f602082860101526020601f19601f83011685010191505092915050565b602081525f610553602083018461055a565b80356001600160a01b03811681146102a2575f5ffd5b5f602082840312156105c0575f5ffd5b6105538261059a565b634e487b7160e01b5f52604160045260245ffd5b6040516101a0810167ffffffffffffffff81118282101715610601576106016105c9565b60405290565b5f82601f830112610616575f5ffd5b813567ffffffffffffffff811115610630576106306105c9565b604051601f8201601f19908116603f0116810167ffffffffffffffff8111828210171561065f5761065f6105c9565b604052818152838201602001851015610676575f5ffd5b816020850160208301375f918101602001919091529392505050565b5f602082840312156106a2575f5ffd5b813567ffffffffffffffff8111156106b8575f5ffd5b82016101a081850312156106ca575f5ffd5b6106d26105dd565b813567ffffffffffffffff8111156106e8575f5ffd5b6106f486828501610607565b825250602082013567ffffffffffffffff811115610710575f5ffd5b61071c86828501610607565b60208301525061072e6040830161059a565b6040820152606082013567ffffffffffffffff81111561074c575f5ffd5b61075886828501610607565b6060830152506080828101359082015260a0808301359082015260c0808301359082015260e08083013590820152610100808301359082015261012080830135908201526101408083013590820152610160808301359082015261018082013567ffffffffffffffff8111156107cc575f5ffd5b6107d886828501610607565b61018083015250949350505050565b5f602082016020835280845180835260408501915060408160051b8601019250602086015f5b8281101561083e57603f1987860301845261082985835161055a565b9450602093840193919091019060010161080d565b50929695505050505050565b634e487b7160e01b5f52603260045260245ffd5b602081525f82516101a0602084015261087b6101c084018261055a565b90506020840151601f19848303016040850152610898828261055a565b91505060408401516108b560608501826001600160a01b03169052565b506060840151838203601f190160808501526108d1828261055a565b915050608084015160a084015260a084015160c084015260c084015160e084015260e0840151610100840152610100840151610120840152610120840151610140840152610140840151610160840152610160840151610180840152610180840151601f19848303016101a085015261094a828261055a565b95945050505050565b5f6001820161097057634e487b7160e01b5f52601160045260245ffd5b506001019056fea2646970667358221220088a6d45b0d776041b4934cb80761b3c419d84d5649ff3324dc94aec79a0fb5d64736f6c634300081e0033608060405234801561000f575f5ffd5b50610018610176565b604081015181516020830151839291905f61003383826103c4565b50600161004082826103c4565b5050506001600160a01b03811661007057604051631e4fbdf760e01b81525f600482015260240160405180910390fd5b610079816102ce565b50606081015160079061008c90826103c4565b50608081015160085560c081015160095560e0810151600a55610100810151600b8190556101208201516011556101408201516012556101608201516100d19161047e565b6013556010805460ff60a01b19169055610180810151600e906100f490826103c4565b5060a0810151600d81905560408083015190519091906101139061031f565b6001600160a01b0390921682526020820152604001604051809103905ff080158015610141573d5f5f3e3d5ffd5b50601080546001600160a01b0319166001600160a01b039290921691909117905550506016805460ff191660011790556104a3565b6101e1604051806101a0016040528060608152602001606081526020015f6001600160a01b03168152602001606081526020015f81526020015f81526020015f81526020015f81526020015f81526020015f81526020015f81526020015f8152602001606081525090565b604051806101a001604052806040518060400160405280600e81526020016d24b6b83632b6b2b73a30ba34b7b760911b8152508152602001604051806040016040528060048152602001631253541360e21b815250815260200161dead6001600160a01b031681526020016040518060400160405280601781526020017f496d706c656d656e746174696f6e20636f6e747261637400000000000000000081525081526020015f81526020015f81526020015f81526020015f81526020015f81526020015f81526020015f81526020015f815260200160405180602001604052805f815250815250905090565b600680546001600160a01b038381166001600160a01b0319831681179093556040519116919082907f8be0079c531659141344cd1fd0a4f28419497f9722a3daafe3b4186f6b6457e0905f90a35050565b61053980612f2b83390190565b634e487b7160e01b5f52604160045260245ffd5b600181811c9082168061035457607f821691505b60208210810361037257634e487b7160e01b5f52602260045260245ffd5b50919050565b601f8211156103bf57805f5260205f20601f840160051c8101602085101561039d5750805b601f840160051c820191505b818110156103bc575f81556001016103a9565b50505b505050565b81516001600160401b038111156103dd576103dd61032c565b6103f1816103eb8454610340565b84610378565b6020601f821160018114610423575f831561040c5750848201515b5f19600385901b1c1916600184901b1784556103bc565b5f84815260208120601f198516915b828110156104525787850151825560209485019460019092019101610432565b508482101561046f57868401515f19600387901b60f8161c191681555b50505050600190811b01905550565b8082018082111561049d57634e487b7160e01b5f52601160045260245ffd5b92915050565b612a7b806104b05f395ff3fe608060405260043610610327575f3560e01c806371c123df116101a3578063b58a0ffe116100f2578063dddf10b411610092578063eedbe31d1161006d578063eedbe31d146108c5578063f2fde38b146108d9578063fb3c6f97146108f8578063fbb99a2b14610917575f5ffd5b8063dddf10b41461087e578063e066fb7d14610892578063e985e9c5146108a6575f5ffd5b8063c87b56dd116100cd578063c87b56dd146107f6578063c934c4ab14610815578063d304682f1461082a578063dd68eb1f1461084a575f5ffd5b8063b58a0ffe1461078c578063b7d08c5c146107a0578063b88d4fde146107d7575f5ffd5b80639280d1251161015d5780639bda2869116101385780639bda2869146107285780639cfa68831461073c578063a22cb46514610759578063a7f93ebd14610778575f5ffd5b80639280d125146106ea57806395d89b41146106ff578063981aa14414610713575f5ffd5b806371c123df1461065c578063744dab3814610671578063820bdcdc1461068557806382d8a1181461069957806388ec35d9146106ae5780638da5cb5b146106cd575f5ffd5b8063375ee526116102795780635d641847116102195780636a627842116101f45780636a627842146105f55780636f573f511461060857806370a0823114610629578063715018a614610648575f5ffd5b80635d641847146105ac5780636202f55c146105c15780636352211e146105d6575f5ffd5b80634ef89719116102545780634ef89719146105525780635207c27314610566578063589487a2146105855780635cd8138c14610599575f5ffd5b8063375ee526146104f157806342842e0e1461051f5780634c0f38c21461053e575f5ffd5b80631de4f619116102e457806329d0fdc0116102bf57806329d0fdc0146104535780632a55205a1461048a5780632b9fcb96146104c85780633595bf17146104dc575f5ffd5b80631de4f6191461040a57806323b872dd1461041f578063282f6cf51461043e575f5ffd5b806301ffc9a71461032b57806306fdde031461035f578063081812fc14610380578063095ea7b3146103b75780630ca1c5c9146103d85780631a092541146103f6575b5f5ffd5b348015610336575f5ffd5b5061034a610345366004611ce0565b610942565b60405190151581526020015b60405180910390f35b34801561036a575f5ffd5b5061037361096c565b6040516103569190611d29565b34801561038b575f5ffd5b5061039f61039a366004611d3b565b6109fb565b6040516001600160a01b039091168152602001610356565b3480156103c2575f5ffd5b506103d66103d1366004611d76565b610a22565b005b3480156103e3575f5ffd5b50600c545b604051908152602001610356565b348015610401575f5ffd5b50610373610a31565b348015610415575f5ffd5b506103e8600d5481565b34801561042a575f5ffd5b506103d6610439366004611da0565b610a40565b348015610449575f5ffd5b506103e860085481565b34801561045e575f5ffd5b5061034a61046d366004611dde565b6001600160a01b03165f9081526014602052604090205460ff1690565b348015610495575f5ffd5b506104a96104a4366004611df9565b610ace565b604080516001600160a01b039093168352602083019190915201610356565b3480156104d3575f5ffd5b50600b546103e8565b3480156104e7575f5ffd5b506103e860125481565b3480156104fc575f5ffd5b5061034a61050b366004611dde565b60146020525f908152604090205460ff1681565b34801561052a575f5ffd5b506103d6610539366004611da0565b610b4e565b348015610549575f5ffd5b506009546103e8565b34801561055d575f5ffd5b50610373610b6d565b348015610571575f5ffd5b506103d6610580366004611e19565b610bf9565b348015610590575f5ffd5b506013546103e8565b6103d66105a7366004611d76565b610c66565b3480156105b7575f5ffd5b506103e860095481565b3480156105cc575f5ffd5b506103e860115481565b3480156105e1575f5ffd5b5061039f6105f0366004611d3b565b610c9e565b6103d6610603366004611dde565b610ca8565b348015610613575f5ffd5b5061061c610cf7565b6040516103569190611ebc565b348015610634575f5ffd5b506103e8610643366004611dde565b610d11565b348015610653575f5ffd5b506103d6610d56565b348015610667575f5ffd5b506103e8600b5481565b34801561067c575f5ffd5b506012546103e8565b348015610690575f5ffd5b50600d546103e8565b3480156106a4575f5ffd5b506103e860155481565b3480156106b9575f5ffd5b506103d66106c8366004611f9a565b610d69565b3480156106d8575f5ffd5b506006546001600160a01b031661039f565b3480156106f5575f5ffd5b506103e860135481565b34801561070a575f5ffd5b50610373610e27565b34801561071e575f5ffd5b506103e8600a5481565b348015610733575f5ffd5b50600a546103e8565b348015610747575f5ffd5b506010546001600160a01b031661039f565b348015610764575f5ffd5b506103d66107733660046120ea565b610e36565b348015610783575f5ffd5b506103e8610e41565b348015610797575f5ffd5b50610373610e78565b3480156107ab575f5ffd5b506107bf6107ba366004611dde565b610e85565b6040516103569c9b9a99989796959493929190612125565b3480156107e2575f5ffd5b506103d66107f136600461218e565b610f48565b348015610801575f5ffd5b50610373610810366004611d3b565b610f60565b348015610820575f5ffd5b506103e8600c5481565b348015610835575f5ffd5b5060105461061c90600160a01b900460ff1681565b348015610855575f5ffd5b506103e8610864366004611dde565b6001600160a01b03165f908152600f602052604090205490565b348015610889575f5ffd5b506103d6610f9e565b34801561089d575f5ffd5b506011546103e8565b3480156108b1575f5ffd5b5061034a6108c0366004612208565b611054565b3480156108d0575f5ffd5b5061061c611081565b3480156108e4575f5ffd5b506103d66108f3366004611dde565b61108f565b348015610903575f5ffd5b5060105461039f906001600160a01b031681565b348015610922575f5ffd5b506103e8610931366004611dde565b600f6020525f908152604090205481565b5f6001600160e01b0319821663152a902d60e11b14806109665750610966826110c9565b92915050565b60605f805461097a90612234565b80601f01602080910402602001604051908101604052809291908181526020018280546109a690612234565b80156109f15780601f106109c8576101008083540402835291602001916109f1565b820191905f5260205f20905b8154815290600101906020018083116109d457829003601f168201915b5050505050905090565b5f610a0582611118565b505f828152600460205260409020546001600160a01b0316610966565b610a2d828233611150565b5050565b60606007805461097a90612234565b6001600160a01b038216610a6e57604051633250574960e11b81525f60048201526024015b60405180910390fd5b5f610a7a83833361115d565b9050836001600160a01b0316816001600160a01b031614610ac8576040516364283d7b60e01b81526001600160a01b0380861660048301526024820184905282166044820152606401610a65565b50505050565b60105460405163152a902d60e11b815260048101849052602481018390525f9182916001600160a01b0390911690632a55205a906044016040805180830381865afa158015610b1f573d5f5f3e3d5ffd5b505050506040513d601f19601f82011682018060405250810190610b43919061226c565b915091509250929050565b610b6883838360405180602001604052805f815250610f48565b505050565b60078054610b7a90612234565b80601f0160208091040260200160405190810160405280929190818152602001828054610ba690612234565b8015610bf15780601f10610bc857610100808354040283529160200191610bf1565b820191905f5260205f20905b815481529060010190602001808311610bd457829003601f168201915b505050505081565b610c0161124f565b5f5b81811015610b6857600160145f858585818110610c2257610c22612298565b9050602002016020810190610c379190611dde565b6001600160a01b0316815260208101919091526040015f20805460ff1916911515919091179055600101610c03565b5f610c71838361127c565b905080341015610c94576040516343e65e4960e11b815260040160405180910390fd5b610b688383611297565b5f61096682611118565b5f610cb482600161127c565b905080341015610cd7576040516343e65e4960e11b815260040160405180910390fd5b60158054905f610ce6836122c0565b9190505550610a2d82601554611328565b5f610d00610f9e565b50601054600160a01b900460ff1690565b5f6001600160a01b038216610d3b576040516322718ad960e21b81525f6004820152602401610a65565b506001600160a01b03165f9081526003602052604090205490565b610d5e61124f565b610d675f6113b7565b565b60165460ff1615610db25760405162461bcd60e51b8152602060048201526013602482015272105b1c9958591e481a5b9a5d1a585b1a5e9959606a1b6044820152606401610a65565b60408101516001600160a01b0316610e015760405162461bcd60e51b81526020600482015260126024820152712d32b9379030b2323932b9b99037bbb732b960711b6044820152606401610a65565b6016805460ff19166001179055610e1781611408565b610e2481604001516113b7565b50565b60606001805461097a90612234565b610a2d3383836114f3565b5f5f610e4b611591565b90506001816002811115610e6157610e61611e88565b14610e6e57601254610e72565b6011545b91505090565b600e8054610b7a90612234565b600b546013544291905f8080808080808080610e9f611591565b98506001896002811115610eb557610eb5611e88565b14610ec257601254610ec6565b6011545b975060115496506012549550600c5494506009549350600f5f8e6001600160a01b03166001600160a01b031681526020019081526020015f20549250600a54915060145f8e6001600160a01b03166001600160a01b031681526020019081526020015f205f9054906101000a900460ff16905091939597999b5091939597999b565b610f53848484610a40565b610ac833858585856115b7565b6060610f6b82611118565b50600e610f77836116df565b604051602001610f889291906122d8565b6040516020818303038152906040529050919050565b5f610fa7611591565b601054909150600160a01b900460ff166002811115610fc857610fc8611e88565b816002811115610fda57610fda611e88565b14610e24576010805482919060ff60a01b1916600160a01b83600281111561100457611004611e88565b02179055507f5d5f43e2ea4473dc52ad8846c20d237f20238a8c304e2a3684e4bac491aa619e601060149054906101000a900460ff1642604051611049929190612372565b60405180910390a150565b6001600160a01b039182165f90815260056020908152604080832093909416825291909152205460ff1690565b5f61108a611591565b905090565b61109761124f565b6001600160a01b0381166110c057604051631e4fbdf760e01b81525f6004820152602401610a65565b610e24816113b7565b5f6001600160e01b031982166380ac58cd60e01b14806110f957506001600160e01b03198216635b5e139f60e01b145b8061096657506301ffc9a760e01b6001600160e01b0319831614610966565b5f818152600260205260408120546001600160a01b03168061096657604051637e27328960e01b815260048101849052602401610a65565b610b68838383600161176e565b5f828152600260205260408120546001600160a01b039081169083161561118957611189818486611872565b6001600160a01b038116156111c3576111a45f855f5f61176e565b6001600160a01b0381165f90815260036020526040902080545f190190555b6001600160a01b038516156111f1576001600160a01b0385165f908152600360205260409020805460010190555b5f8481526002602052604080822080546001600160a01b0319166001600160a01b0389811691821790925591518793918516917fddf252ad1be2c89b69c2b068fc378daa952ba7f163c4a11628f55a4df523b3ef91a4949350505050565b6006546001600160a01b03163314610d675760405163118cdaa760e01b8152336004820152602401610a65565b5f61128783836118d6565b61129082611abc565b9392505050565b601580549082905f6112a9838561238d565b909155505f90505b828110156112df576112d7846112c7838561238d565b6112d290600161238d565b611328565b6001016112b1565b50826001600160a01b03167f6174e73d7eb2fee6c482f87f81961b83cfa577f50c963bd1516f282497260fcd8360405161131b91815260200190565b60405180910390a2505050565b6001600160a01b0382165f908152600f6020526040812080549161134b836122c0565b9091555050600c8054905f61135f836122c0565b919050555061136e8282611b22565b80826001600160a01b03167f25b428dfde728ccfaddad7e29e4ac23c24ed7fd1a6e3e3f91894a9a073f5dfff60016040516113ab91815260200190565b60405180910390a35050565b600680546001600160a01b038381166001600160a01b0319831681179093556040519116919082907f8be0079c531659141344cd1fd0a4f28419497f9722a3daafe3b4186f6b6457e0905f90a35050565b606081015160079061141a90826123e4565b50608081015160085560c081015160095560e0810151600a55610100810151600b81905561012082015160115561014082015160125561016082015161145f9161238d565b6013556010805460ff60a01b19169055610180810151600e9061148290826123e4565b5060a0810151600d81905560408083015190519091906114a190611cbe565b6001600160a01b0390921682526020820152604001604051809103905ff0801580156114cf573d5f5f3e3d5ffd5b50601080546001600160a01b0319166001600160a01b039290921691909117905550565b6001600160a01b03821661152557604051630b61174360e31b81526001600160a01b0383166004820152602401610a65565b6001600160a01b038381165f81815260056020908152604080832094871680845294825291829020805460ff191686151590811790915591519182527f17307eab39ab6107e8899845ad3d59bd9653f200f220920489ca2b5937696c31910160405180910390a3505050565b5f600b544210156115a157505f90565b6013544210156115b15750600190565b50600290565b6001600160a01b0383163b156116d857604051630a85bd0160e11b81526001600160a01b0384169063150b7a02906115f990889088908790879060040161249e565b6020604051808303815f875af1925050508015611633575060408051601f3d908101601f19168201909252611630918101906124da565b60015b61169a573d808015611660576040519150601f19603f3d011682016040523d82523d5f602084013e611665565b606091505b5080515f0361169257604051633250574960e11b81526001600160a01b0385166004820152602401610a65565b805160208201fd5b6001600160e01b03198116630a85bd0160e11b146116d657604051633250574960e11b81526001600160a01b0385166004820152602401610a65565b505b5050505050565b60605f6116eb83611b83565b60010190505f816001600160401b0381111561170957611709611eca565b6040519080825280601f01601f191660200182016040528015611733576020820181803683370190505b5090508181016020015b5f19016f181899199a1a9b1b9c1cb0b131b232b360811b600a86061a8153600a850494508461173d57509392505050565b808061178257506001600160a01b03821615155b15611843575f61179184611118565b90506001600160a01b038316158015906117bd5750826001600160a01b0316816001600160a01b031614155b80156117d057506117ce8184611054565b155b156117f95760405163a9fbf51f60e01b81526001600160a01b0384166004820152602401610a65565b81156118415783856001600160a01b0316826001600160a01b03167f8c5be1e5ebec7d5bd14f71427d1e84f3dd0314c0f7b2291e5b200ac8c7c3b92560405160405180910390a45b505b50505f90815260046020526040902080546001600160a01b0319166001600160a01b0392909216919091179055565b61187d838383611c5a565b610b68576001600160a01b0383166118ab57604051637e27328960e01b815260048101829052602401610a65565b60405163177e802f60e01b81526001600160a01b038316600482015260248101829052604401610a65565b5f6118df611591565b601054909150600160a01b900460ff16600281111561190057611900611e88565b81600281111561191257611912611e88565b1461198a576010805482919060ff60a01b1916600160a01b83600281111561193c5761193c611e88565b02179055507f5d5f43e2ea4473dc52ad8846c20d237f20238a8c304e2a3684e4bac491aa619e601060149054906101000a900460ff1642604051611981929190612372565b60405180910390a15b600b544210156119ad57604051633f6fbd0760e01b815260040160405180910390fd5b5f601054600160a01b900460ff1660028111156119cc576119cc611e88565b036119ea57604051630755957160e21b815260040160405180910390fd5b600a546001600160a01b0384165f908152600f6020526040902054611a1090849061238d565b1115611a2f5760405163e880fa1b60e01b815260040160405180910390fd5b60095482600c54611a40919061238d565b1115611a5f5760405163e880fa1b60e01b815260040160405180910390fd5b6001601054600160a01b900460ff166002811115611a7f57611a7f611e88565b03610b68576001600160a01b0383165f9081526014602052604090205460ff16610b685760405163f501eed560e01b815260040160405180910390fd5b5f815f03611add57604051631562f6f760e11b815260040160405180910390fd5b5f611ae6611591565b90506001816002811115611afc57611afc611e88565b14611b145782601254611b0f91906124f5565b611290565b8260115461129091906124f5565b6001600160a01b038216611b4b57604051633250574960e11b81525f6004820152602401610a65565b5f611b5783835f61115d565b90506001600160a01b03811615610b68576040516339e3563760e11b81525f6004820152602401610a65565b5f8072184f03e93ff9f4daa797ed6e38ed64bf6a1f0160401b8310611bc15772184f03e93ff9f4daa797ed6e38ed64bf6a1f0160401b830492506040015b6d04ee2d6d415b85acef81000000008310611bed576d04ee2d6d415b85acef8100000000830492506020015b662386f26fc100008310611c0b57662386f26fc10000830492506010015b6305f5e1008310611c23576305f5e100830492506008015b6127108310611c3757612710830492506004015b60648310611c49576064830492506002015b600a83106109665760010192915050565b5f6001600160a01b03831615801590611cb65750826001600160a01b0316846001600160a01b03161480611c935750611c938484611054565b80611cb657505f828152600460205260409020546001600160a01b038481169116145b949350505050565b6105398061250d83390190565b6001600160e01b031981168114610e24575f5ffd5b5f60208284031215611cf0575f5ffd5b813561129081611ccb565b5f81518084528060208401602086015e5f602082860101526020601f19601f83011685010191505092915050565b602081525f6112906020830184611cfb565b5f60208284031215611d4b575f5ffd5b5035919050565b6001600160a01b0381168114610e24575f5ffd5b8035611d7181611d52565b919050565b5f5f60408385031215611d87575f5ffd5b8235611d9281611d52565b946020939093013593505050565b5f5f5f60608486031215611db2575f5ffd5b8335611dbd81611d52565b92506020840135611dcd81611d52565b929592945050506040919091013590565b5f60208284031215611dee575f5ffd5b813561129081611d52565b5f5f60408385031215611e0a575f5ffd5b50508035926020909101359150565b5f5f60208385031215611e2a575f5ffd5b82356001600160401b03811115611e3f575f5ffd5b8301601f81018513611e4f575f5ffd5b80356001600160401b03811115611e64575f5ffd5b8560208260051b8401011115611e78575f5ffd5b6020919091019590945092505050565b634e487b7160e01b5f52602160045260245ffd5b60038110611eb857634e487b7160e01b5f52602160045260245ffd5b9052565b602081016109668284611e9c565b634e487b7160e01b5f52604160045260245ffd5b6040516101a081016001600160401b0381118282101715611f0157611f01611eca565b60405290565b5f5f6001600160401b03841115611f2057611f20611eca565b50604051601f19601f85018116603f011681018181106001600160401b0382111715611f4e57611f4e611eca565b604052838152905080828401851015611f65575f5ffd5b838360208301375f60208583010152509392505050565b5f82601f830112611f8b575f5ffd5b61129083833560208501611f07565b5f60208284031215611faa575f5ffd5b81356001600160401b03811115611fbf575f5ffd5b82016101a08185031215611fd1575f5ffd5b611fd9611ede565b81356001600160401b03811115611fee575f5ffd5b611ffa86828501611f7c565b82525060208201356001600160401b03811115612015575f5ffd5b61202186828501611f7c565b60208301525061203360408301611d66565b604082015260608201356001600160401b03811115612050575f5ffd5b61205c86828501611f7c565b6060830152506080828101359082015260a0808301359082015260c0808301359082015260e0808301359082015261010080830135908201526101208083013590820152610140808301359082015261016080830135908201526101808201356001600160401b038111156120cf575f5ffd5b6120db86828501611f7c565b61018083015250949350505050565b5f5f604083850312156120fb575f5ffd5b823561210681611d52565b91506020830135801515811461211a575f5ffd5b809150509250929050565b8c8152602081018c9052604081018b90526101808101612148606083018c611e9c565b608082019990995260a081019790975260c087019590955260e0860193909352610100850191909152610120840152610140830152151561016090910152949350505050565b5f5f5f5f608085870312156121a1575f5ffd5b84356121ac81611d52565b935060208501356121bc81611d52565b92506040850135915060608501356001600160401b038111156121dd575f5ffd5b8501601f810187136121ed575f5ffd5b6121fc87823560208401611f07565b91505092959194509250565b5f5f60408385031215612219575f5ffd5b823561222481611d52565b9150602083013561211a81611d52565b600181811c9082168061224857607f821691505b60208210810361226657634e487b7160e01b5f52602260045260245ffd5b50919050565b5f5f6040838503121561227d575f5ffd5b825161228881611d52565b6020939093015192949293505050565b634e487b7160e01b5f52603260045260245ffd5b634e487b7160e01b5f52601160045260245ffd5b5f600182016122d1576122d16122ac565b5060010190565b5f5f84546122e581612234565b6001821680156122fc57600181146123115761233e565b60ff198316865281151582028601935061233e565b875f5260205f205f5b838110156123365781548882015260019091019060200161231a565b505081860193505b505050602f60f81b815283518060208601600184015e64173539b7b760d91b91016001810191825260060195945050505050565b604081016123808285611e9c565b8260208301529392505050565b80820180821115610966576109666122ac565b601f821115610b6857805f5260205f20601f840160051c810160208510156123c55750805b601f840160051c820191505b818110156116d8575f81556001016123d1565b81516001600160401b038111156123fd576123fd611eca565b6124118161240b8454612234565b846123a0565b6020601f821160018114612443575f831561242c5750848201515b5f19600385901b1c1916600184901b1784556116d8565b5f84815260208120601f198516915b828110156124725787850151825560209485019460019092019101612452565b508482101561248f57868401515f19600387901b60f8161c191681555b50505050600190811b01905550565b6001600160a01b03858116825284166020820152604081018390526080606082018190525f906124d090830184611cfb565b9695505050505050565b5f602082840312156124ea575f5ffd5b815161129081611ccb565b8082028115828204841417610966576109666122ac56fe608060405234801561000f575f5ffd5b5060405161053938038061053983398101604081905261002e916100e1565b816001600160a01b03811661005c57604051631e4fbdf760e01b81525f600482015260240160405180910390fd5b61006581610092565b5061271081111561008957604051637c9e216d60e01b815260040160405180910390fd5b60015550610118565b5f80546001600160a01b038381166001600160a01b0319831681178455604051919092169283917f8be0079c531659141344cd1fd0a4f28419497f9722a3daafe3b4186f6b6457e09190a35050565b5f5f604083850312156100f2575f5ffd5b82516001600160a01b0381168114610108575f5ffd5b6020939093015192949293505050565b610414806101255f395ff3fe608060405234801561000f575f5ffd5b5060043610610085575f3560e01c8063715018a611610058578063715018a61461010f578063820bdcdc146101175780638da5cb5b1461011f578063f2fde38b14610139575f5ffd5b806301ffc9a7146100895780631de4f619146100b15780632a55205a146100c85780633e4086e5146100fa575b5f5ffd5b61009c610097366004610311565b61014c565b60405190151581526020015b60405180910390f35b6100ba60015481565b6040519081526020016100a8565b6100db6100d636600461033f565b610182565b604080516001600160a01b0390931683526020830191909152016100a8565b61010d61010836600461035f565b6101bb565b005b61010d610241565b6001546100ba565b5f546040516001600160a01b0390911681526020016100a8565b61010d610147366004610376565b610254565b5f6001600160e01b0319821663152a902d60e11b148061017c57506301ffc9a760e01b6001600160e01b03198316145b92915050565b5f5f6101955f546001600160a01b031690565b612710600154856101a6919061039c565b6101b091906103bf565b915091509250929050565b6101c3610296565b6127108111156101e657604051637c9e216d60e01b815260040160405180910390fd5b600181905560408051818152600a8183015269726f79616c747946656560b01b60608201526020810183905290517fc5dbbc1a39078c6d41f75645288952af1adce3154214371d76e77356656424539181900360800190a150565b610249610296565b6102525f6102c2565b565b61025c610296565b6001600160a01b03811661028a57604051631e4fbdf760e01b81525f60048201526024015b60405180910390fd5b610293816102c2565b50565b5f546001600160a01b031633146102525760405163118cdaa760e01b8152336004820152602401610281565b5f80546001600160a01b038381166001600160a01b0319831681178455604051919092169283917f8be0079c531659141344cd1fd0a4f28419497f9722a3daafe3b4186f6b6457e09190a35050565b5f60208284031215610321575f5ffd5b81356001600160e01b031981168114610338575f5ffd5b9392505050565b5f5f60408385031215610350575f5ffd5b50508035926020909101359150565b5f6020828403121561036f575f5ffd5b5035919050565b5f60208284031215610386575f5ffd5b81356001600160a01b0381168114610338575f5ffd5b808202811582820484141761017c57634e487b7160e01b5f52601160045260245ffd5b5f826103d957634e487b7160e01b5f52601260045260245ffd5b50049056fea26469706673582212205396525c79a551fb93ba2c52574a83c2f928444f860ba2944f5e89b2a678a6b464736f6c634300081e0033a26469706673582212206bc7ecc6cf34f4e93e19bfb699cc02f842a64703e2a08e09a3c91ecd30c8f68164736f6c634300081e0033608060405234801561000f575f5ffd5b5060405161053938038061053983398101604081905261002e916100e1565b816001600160a01b03811661005c57604051631e4fbdf760e01b81525f600482015260240160405180910390fd5b61006581610092565b5061271081111561008957604051637c9e216d60e01b815260040160405180910390fd5b60015550610118565b5f80546001600160a01b038381166001600160a01b0319831681178455604051919092169283917f8be0079c531659141344cd1fd0a4f28419497f9722a3daafe3b4186f6b6457e09190a35050565b5f5f604083850312156100f2575f5ffd5b82516001600160a01b0381168114610108575f5ffd5b6020939093015192949293505050565b610414806101255f395ff3fe608060405234801561000f575f5ffd5b5060043610610085575f3560e01c8063715018a611610058578063715018a61461010f578063820bdcdc146101175780638da5cb5b1461011f578063f2fde38b14610139575f5ffd5b806301ffc9a7146100895780631de4f619146100b15780632a55205a146100c85780633e4086e5146100fa575b5f5ffd5b61009c610097366004610311565b61014c565b60405190151581526020015b60405180910390f35b6100ba60015481565b6040519081526020016100a8565b6100db6100d636600461033f565b610182565b604080516001600160a01b0390931683526020830191909152016100a8565b61010d61010836600461035f565b6101bb565b005b61010d610241565b6001546100ba565b5f546040516001600160a01b0390911681526020016100a8565b61010d610147366004610376565b610254565b5f6001600160e01b0319821663152a902d60e11b148061017c57506301ffc9a760e01b6001600160e01b03198316145b92915050565b5f5f6101955f546001600160a01b031690565b612710600154856101a6919061039c565b6101b091906103bf565b915091509250929050565b6101c3610296565b6127108111156101e657604051637c9e216d60e01b815260040160405180910390fd5b600181905560408051818152600a8183015269726f79616c747946656560b01b60608201526020810183905290517fc5dbbc1a39078c6d41f75645288952af1adce3154214371d76e77356656424539181900360800190a150565b610249610296565b6102525f6102c2565b565b61025c610296565b6001600160a01b03811661028a57604051631e4fbdf760e01b81525f60048201526024015b60405180910390fd5b610293816102c2565b50565b5f546001600160a01b031633146102525760405163118cdaa760e01b8152336004820152602401610281565b5f80546001600160a01b038381166001600160a01b0319831681178455604051919092169283917f8be0079c531659141344cd1fd0a4f28419497f9722a3daafe3b4186f6b6457e09190a35050565b5f60208284031215610321575f5ffd5b81356001600160e01b031981168114610338575f5ffd5b9392505050565b5f5f60408385031215610350575f5ffd5b50508035926020909101359150565b5f6020828403121561036f575f5ffd5b5035919050565b5f60208284031215610386575f5ffd5b81356001600160a01b0381168114610338575f5ffd5b808202811582820484141761017c57634e487b7160e01b5f52601160045260245ffd5b5f826103d957634e487b7160e01b5f52601260045260245ffd5b50049056fea26469706673582212205396525c79a551fb93ba2c52574a83c2f928444f860ba2944f5e89b2a678a6b464736f6c634300081e0033",
    "linkReferences": {}
  },
  "methodIdentifiers": {
    "contractType()": "cb2ef6f7",
    "createERC721Collection((string,string,address,string,uint256,uint256,uint256,uint256,uint256,uint256,uint256,uint256,string))": "a61b212f",
    "erc721CollectionImplementation()": "2451ebc9",
    "getSupportedStandards()": "c71586d5",
    "getTotalCollections()": "939bf6dd",
    "isActive()": "22f3e2d4",
    "isValidCollection(address)": "75900e6a",
    "supportsInterface(bytes4)": "01ffc9a7",
    "version()": "54fd4d50"
  },
  "id": 78
}