{
  "abi": [
    {
      "type": "constructor",
      "inputs": [],
      "stateMutability": "nonpayable"
    },
    {
      "type": "function",
      "name": "BPS_DENOMINATOR",
      "inputs": [],
      "outputs": [
        {
          "name": "",
          "type": "uint256",
          "internalType": "uint256"
        }
      ],
      "stateMutability": "view"
    },
    {
      "type": "function",
      "name": "batchBuyNFT",
      "inputs": [
        {
          "name": "m_listingIds",
          "type": "bytes32[]",
          "internalType": "bytes32[]"
        }
      ],
      "outputs": [],
      "stateMutability": "payable"
    },
    {
      "type": "function",
      "name": "batchCancelListing",
      "inputs": [
        {
          "name": "m_listingIds",
          "type": "bytes32[]",
          "internalType": "bytes32[]"
        }
      ],
      "outputs": [],
      "stateMutability": "nonpayable"
    },
    {
      "type": "function",
      "name": "batchListNFT",
      "inputs": [
        {
          "name": "m_contractAddress",
          "type": "address",
          "internalType": "address"
        },
        {
          "name": "m_tokenIds",
          "type": "uint256[]",
          "internalType": "uint256[]"
        },
        {
          "name": "m_amounts",
          "type": "uint256[]",
          "internalType": "uint256[]"
        },
        {
          "name": "m_prices",
          "type": "uint256[]",
          "internalType": "uint256[]"
        },
        {
          "name": "m_listingDuration",
          "type": "uint256",
          "internalType": "uint256"
        }
      ],
      "outputs": [],
      "stateMutability": "nonpayable"
    },
    {
      "type": "function",
      "name": "buyNFT",
      "inputs": [
        {
          "name": "m_listingId",
          "type": "bytes32",
          "internalType": "bytes32"
        }
      ],
      "outputs": [],
      "stateMutability": "payable"
    },
    {
      "type": "function",
      "name": "buyNFT",
      "inputs": [
        {
          "name": "m_listingId",
          "type": "bytes32",
          "internalType": "bytes32"
        },
        {
          "name": "m_amount",
          "type": "uint256",
          "internalType": "uint256"
        }
      ],
      "outputs": [],
      "stateMutability": "payable"
    },
    {
      "type": "function",
      "name": "cancelListing",
      "inputs": [
        {
          "name": "m_listingId",
          "type": "bytes32",
          "internalType": "bytes32"
        }
      ],
      "outputs": [],
      "stateMutability": "nonpayable"
    },
    {
      "type": "function",
      "name": "contractType",
      "inputs": [],
      "outputs": [
        {
          "name": "",
          "type": "string",
          "internalType": "string"
        }
      ],
      "stateMutability": "pure"
    },
    {
      "type": "function",
      "name": "get24hVolume",
      "inputs": [
        {
          "name": "",
          "type": "address",
          "internalType": "address"
        }
      ],
      "outputs": [
        {
          "name": "",
          "type": "uint256",
          "internalType": "uint256"
        }
      ],
      "stateMutability": "view"
    },
    {
      "type": "function",
      "name": "getBuyerSeesPrice",
      "inputs": [
        {
          "name": "m_listingId",
          "type": "bytes32",
          "internalType": "bytes32"
        }
      ],
      "outputs": [
        {
          "name": "",
          "type": "uint256",
          "internalType": "uint256"
        }
      ],
      "stateMutability": "view"
    },
    {
      "type": "function",
      "name": "getFloorDiff",
      "inputs": [
        {
          "name": "m_listingId",
          "type": "bytes32",
          "internalType": "bytes32"
        }
      ],
      "outputs": [
        {
          "name": "",
          "type": "int256",
          "internalType": "int256"
        }
      ],
      "stateMutability": "view"
    },
    {
      "type": "function",
      "name": "getFloorPrice",
      "inputs": [
        {
          "name": "",
          "type": "address",
          "internalType": "address"
        }
      ],
      "outputs": [
        {
          "name": "",
          "type": "uint256",
          "internalType": "uint256"
        }
      ],
      "stateMutability": "view"
    },
    {
      "type": "function",
      "name": "getGeneratedListingId",
      "inputs": [
        {
          "name": "m_contractAddress",
          "type": "address",
          "internalType": "address"
        },
        {
          "name": "m_tokenId",
          "type": "uint256",
          "internalType": "uint256"
        },
        {
          "name": "m_sender",
          "type": "address",
          "internalType": "address"
        }
      ],
      "outputs": [
        {
          "name": "",
          "type": "bytes32",
          "internalType": "bytes32"
        }
      ],
      "stateMutability": "view"
    },
    {
      "type": "function",
      "name": "getLadderPrice",
      "inputs": [
        {
          "name": "m_contractAddress",
          "type": "address",
          "internalType": "address"
        },
        {
          "name": "",
          "type": "uint256",
          "internalType": "uint256"
        }
      ],
      "outputs": [
        {
          "name": "",
          "type": "uint256",
          "internalType": "uint256"
        }
      ],
      "stateMutability": "view"
    },
    {
      "type": "function",
      "name": "getListingsByCollection",
      "inputs": [
        {
          "name": "m_contractAddress",
          "type": "address",
          "internalType": "address"
        }
      ],
      "outputs": [
        {
          "name": "",
          "type": "bytes32[]",
          "internalType": "bytes32[]"
        }
      ],
      "stateMutability": "view"
    },
    {
      "type": "function",
      "name": "getListingsBySeller",
      "inputs": [
        {
          "name": "m_seller",
          "type": "address",
          "internalType": "address"
        }
      ],
      "outputs": [
        {
          "name": "",
          "type": "bytes32[]",
          "internalType": "bytes32[]"
        }
      ],
      "stateMutability": "view"
    },
    {
      "type": "function",
      "name": "getRoyaltyInfo",
      "inputs": [
        {
          "name": "m_contractAddress",
          "type": "address",
          "internalType": "address"
        },
        {
          "name": "m_tokenId",
          "type": "uint256",
          "internalType": "uint256"
        },
        {
          "name": "m_salePrice",
          "type": "uint256",
          "internalType": "uint256"
        }
      ],
      "outputs": [
        {
          "name": "receiver",
          "type": "address",
          "internalType": "address"
        },
        {
          "name": "royaltyAmount",
          "type": "uint256",
          "internalType": "uint256"
        }
      ],
      "stateMutability": "view"
    },
    {
      "type": "function",
      "name": "getTakerFee",
      "inputs": [],
      "outputs": [
        {
          "name": "",
          "type": "uint256",
          "internalType": "uint256"
        }
      ],
      "stateMutability": "view"
    },
    {
      "type": "function",
      "name": "getTopTraitPrice",
      "inputs": [
        {
          "name": "m_contractAddress",
          "type": "address",
          "internalType": "address"
        },
        {
          "name": "",
          "type": "uint256",
          "internalType": "uint256"
        }
      ],
      "outputs": [
        {
          "name": "",
          "type": "uint256",
          "internalType": "uint256"
        }
      ],
      "stateMutability": "view"
    },
    {
      "type": "function",
      "name": "initialize",
      "inputs": [
        {
          "name": "m_marketplaceWallet",
          "type": "address",
          "internalType": "address"
        },
        {
          "name": "m_owner",
          "type": "address",
          "internalType": "address"
        }
      ],
      "outputs": [],
      "stateMutability": "nonpayable"
    },
    {
      "type": "function",
      "name": "isActive",
      "inputs": [],
      "outputs": [
        {
          "name": "",
          "type": "bool",
          "internalType": "bool"
        }
      ],
      "stateMutability": "view"
    },
    {
      "type": "function",
      "name": "listNFT",
      "inputs": [
        {
          "name": "m_contractAddress",
          "type": "address",
          "internalType": "address"
        },
        {
          "name": "m_tokenId",
          "type": "uint256",
          "internalType": "uint256"
        },
        {
          "name": "m_amount",
          "type": "uint256",
          "internalType": "uint256"
        },
        {
          "name": "m_price",
          "type": "uint256",
          "internalType": "uint256"
        },
        {
          "name": "m_listingDuration",
          "type": "uint256",
          "internalType": "uint256"
        }
      ],
      "outputs": [],
      "stateMutability": "nonpayable"
    },
    {
      "type": "function",
      "name": "marketplaceWallet",
      "inputs": [],
      "outputs": [
        {
          "name": "",
          "type": "address",
          "internalType": "address"
        }
      ],
      "stateMutability": "view"
    },
    {
      "type": "function",
      "name": "owner",
      "inputs": [],
      "outputs": [
        {
          "name": "",
          "type": "address",
          "internalType": "address"
        }
      ],
      "stateMutability": "view"
    },
    {
      "type": "function",
      "name": "renounceOwnership",
      "inputs": [],
      "outputs": [],
      "stateMutability": "nonpayable"
    },
    {
      "type": "function",
      "name": "s_activeListings",
      "inputs": [
        {
          "name": "",
          "type": "address",
          "internalType": "address"
        },
        {
          "name": "",
          "type": "uint256",
          "internalType": "uint256"
        },
        {
          "name": "",
          "type": "address",
          "internalType": "address"
        }
      ],
      "outputs": [
        {
          "name": "",
          "type": "bytes32",
          "internalType": "bytes32"
        }
      ],
      "stateMutability": "view"
    },
    {
      "type": "function",
      "name": "s_listings",
      "inputs": [
        {
          "name": "",
          "type": "bytes32",
          "internalType": "bytes32"
        }
      ],
      "outputs": [
        {
          "name": "contractAddress",
          "type": "address",
          "internalType": "address"
        },
        {
          "name": "tokenId",
          "type": "uint256",
          "internalType": "uint256"
        },
        {
          "name": "price",
          "type": "uint256",
          "internalType": "uint256"
        },
        {
          "name": "seller",
          "type": "address",
          "internalType": "address"
        },
        {
          "name": "listingDuration",
          "type": "uint256",
          "internalType": "uint256"
        },
        {
          "name": "listingStart",
          "type": "uint256",
          "internalType": "uint256"
        },
        {
          "name": "status",
          "type": "uint8",
          "internalType": "enum BaseNFTExchange.ListingStatus"
        },
        {
          "name": "amount",
          "type": "uint256",
          "internalType": "uint256"
        }
      ],
      "stateMutability": "view"
    },
    {
      "type": "function",
      "name": "s_listingsByCollection",
      "inputs": [
        {
          "name": "",
          "type": "address",
          "internalType": "address"
        },
        {
          "name": "",
          "type": "uint256",
          "internalType": "uint256"
        }
      ],
      "outputs": [
        {
          "name": "",
          "type": "bytes32",
          "internalType": "bytes32"
        }
      ],
      "stateMutability": "view"
    },
    {
      "type": "function",
      "name": "s_listingsBySeller",
      "inputs": [
        {
          "name": "",
          "type": "address",
          "internalType": "address"
        },
        {
          "name": "",
          "type": "uint256",
          "internalType": "uint256"
        }
      ],
      "outputs": [
        {
          "name": "",
          "type": "bytes32",
          "internalType": "bytes32"
        }
      ],
      "stateMutability": "view"
    },
    {
      "type": "function",
      "name": "s_marketplaceWallet",
      "inputs": [],
      "outputs": [
        {
          "name": "",
          "type": "address",
          "internalType": "address"
        }
      ],
      "stateMutability": "view"
    },
    {
      "type": "function",
      "name": "s_takerFee",
      "inputs": [],
      "outputs": [
        {
          "name": "",
          "type": "uint256",
          "internalType": "uint256"
        }
      ],
      "stateMutability": "view"
    },
    {
      "type": "function",
      "name": "supportedStandard",
      "inputs": [],
      "outputs": [
        {
          "name": "",
          "type": "string",
          "internalType": "string"
        }
      ],
      "stateMutability": "pure"
    },
    {
      "type": "function",
      "name": "supportsInterface",
      "inputs": [
        {
          "name": "interfaceId",
          "type": "bytes4",
          "internalType": "bytes4"
        }
      ],
      "outputs": [
        {
          "name": "",
          "type": "bool",
          "internalType": "bool"
        }
      ],
      "stateMutability": "view"
    },
    {
      "type": "function",
      "name": "transferOwnership",
      "inputs": [
        {
          "name": "newOwner",
          "type": "address",
          "internalType": "address"
        }
      ],
      "outputs": [],
      "stateMutability": "nonpayable"
    },
    {
      "type": "function",
      "name": "updateMarketplaceWallet",
      "inputs": [
        {
          "name": "m_newMarketplaceWallet",
          "type": "address",
          "internalType": "address"
        }
      ],
      "outputs": [],
      "stateMutability": "nonpayable"
    },
    {
      "type": "function",
      "name": "updateTakerFee",
      "inputs": [
        {
          "name": "m_newTakerFee",
          "type": "uint256",
          "internalType": "uint256"
        }
      ],
      "outputs": [],
      "stateMutability": "nonpayable"
    },
    {
      "type": "function",
      "name": "version",
      "inputs": [],
      "outputs": [
        {
          "name": "",
          "type": "string",
          "internalType": "string"
        }
      ],
      "stateMutability": "pure"
    },
    {
      "type": "event",
      "name": "Initialized",
      "inputs": [
        {
          "name": "version",
          "type": "uint64",
          "indexed": false,
          "internalType": "uint64"
        }
      ],
      "anonymous": false
    },
    {
      "type": "event",
      "name": "ListingCancelled",
      "inputs": [
        {
          "name": "listingId",
          "type": "bytes32",
          "indexed": true,
          "internalType": "bytes32"
        },
        {
          "name": "contractAddress",
          "type": "address",
          "indexed": true,
          "internalType": "address"
        },
        {
          "name": "tokenId",
          "type": "uint256",
          "indexed": true,
          "internalType": "uint256"
        },
        {
          "name": "seller",
          "type": "address",
          "indexed": false,
          "internalType": "address"
        }
      ],
      "anonymous": false
    },
    {
      "type": "event",
      "name": "MarketplaceWalletUpdated",
      "inputs": [
        {
          "name": "oldWallet",
          "type": "address",
          "indexed": true,
          "internalType": "address"
        },
        {
          "name": "newWallet",
          "type": "address",
          "indexed": true,
          "internalType": "address"
        }
      ],
      "anonymous": false
    },
    {
      "type": "event",
      "name": "NFTListed",
      "inputs": [
        {
          "name": "listingId",
          "type": "bytes32",
          "indexed": true,
          "internalType": "bytes32"
        },
        {
          "name": "contractAddress",
          "type": "address",
          "indexed": true,
          "internalType": "address"
        },
        {
          "name": "tokenId",
          "type": "uint256",
          "indexed": true,
          "internalType": "uint256"
        },
        {
          "name": "seller",
          "type": "address",
          "indexed": false,
          "internalType": "address"
        },
        {
          "name": "price",
          "type": "uint256",
          "indexed": false,
          "internalType": "uint256"
        }
      ],
      "anonymous": false
    },
    {
      "type": "event",
      "name": "NFTSold",
      "inputs": [
        {
          "name": "listingId",
          "type": "bytes32",
          "indexed": true,
          "internalType": "bytes32"
        },
        {
          "name": "contractAddress",
          "type": "address",
          "indexed": true,
          "internalType": "address"
        },
        {
          "name": "tokenId",
          "type": "uint256",
          "indexed": true,
          "internalType": "uint256"
        },
        {
          "name": "seller",
          "type": "address",
          "indexed": false,
          "internalType": "address"
        },
        {
          "name": "buyer",
          "type": "address",
          "indexed": false,
          "internalType": "address"
        },
        {
          "name": "price",
          "type": "uint256",
          "indexed": false,
          "internalType": "uint256"
        }
      ],
      "anonymous": false
    },
    {
      "type": "event",
      "name": "OwnershipTransferred",
      "inputs": [
        {
          "name": "previousOwner",
          "type": "address",
          "indexed": true,
          "internalType": "address"
        },
        {
          "name": "newOwner",
          "type": "address",
          "indexed": true,
          "internalType": "address"
        }
      ],
      "anonymous": false
    },
    {
      "type": "event",
      "name": "TakerFeeUpdated",
      "inputs": [
        {
          "name": "oldFee",
          "type": "uint256",
          "indexed": false,
          "internalType": "uint256"
        },
        {
          "name": "newFee",
          "type": "uint256",
          "indexed": false,
          "internalType": "uint256"
        }
      ],
      "anonymous": false
    },
    {
      "type": "error",
      "name": "InvalidInitialization",
      "inputs": []
    },
    {
      "type": "error",
      "name": "NFTExchange__AmountMustBeGreaterThanZero",
      "inputs": []
    },
    {
      "type": "error",
      "name": "NFTExchange__ArrayLengthMismatch",
      "inputs": []
    },
    {
      "type": "error",
      "name": "NFTExchange__DurationMustBeGreaterThanZero",
      "inputs": []
    },
    {
      "type": "error",
      "name": "NFTExchange__InsufficientBalance",
      "inputs": []
    },
    {
      "type": "error",
      "name": "NFTExchange__InsufficientPayment",
      "inputs": []
    },
    {
      "type": "error",
      "name": "NFTExchange__InvalidMarketplaceWallet",
      "inputs": []
    },
    {
      "type": "error",
      "name": "NFTExchange__InvalidTakerFee",
      "inputs": []
    },
    {
      "type": "error",
      "name": "NFTExchange__ListingExpired",
      "inputs": []
    },
    {
      "type": "error",
      "name": "NFTExchange__MarketplaceNotApproved",
      "inputs": []
    },
    {
      "type": "error",
      "name": "NFTExchange__NFTAlreadyListed",
      "inputs": []
    },
    {
      "type": "error",
      "name": "NFTExchange__NFTNotActive",
      "inputs": []
    },
    {
      "type": "error",
      "name": "NFTExchange__NotTheOwner",
      "inputs": []
    },
    {
      "type": "error",
      "name": "NFTExchange__PriceMustBeGreaterThanZero",
      "inputs": []
    },
    {
      "type": "error",
      "name": "NFTExchange__TransferToSellerFailed",
      "inputs": []
    },
    {
      "type": "error",
      "name": "NotInitializing",
      "inputs": []
    },
    {
      "type": "error",
      "name": "OwnableInvalidOwner",
      "inputs": [
        {
          "name": "owner",
          "type": "address",
          "internalType": "address"
        }
      ]
    },
    {
      "type": "error",
      "name": "OwnableUnauthorizedAccount",
      "inputs": [
        {
          "name": "account",
          "type": "address",
          "internalType": "address"
        }
      ]
    },
    {
      "type": "error",
      "name": "PaymentDistribution__InsufficientBalance",
      "inputs": []
    },
    {
      "type": "error",
      "name": "PaymentDistribution__InvalidAmount",
      "inputs": []
    },
    {
      "type": "error",
      "name": "PaymentDistribution__TransferFailed",
      "inputs": []
    },
    {
      "type": "error",
      "name": "PaymentDistribution__ZeroAddress",
      "inputs": []
    }
  ],
  "bytecode": {
    "object": "0x608060405260c86001553480156013575f5ffd5b503380603857604051631e4fbdf760e01b81525f600482015260240160405180910390fd5b603f816044565b506093565b5f80546001600160a01b038381166001600160a01b0319831681178455604051919092169283917f8be0079c531659141344cd1fd0a4f28419497f9722a3daafe3b4186f6b6457e09190a35050565b613d92806100a05f395ff3fe608060405260043610610212575f3560e01c8063875ebbea1161011e578063c118f133116100a8578063d6b257521161006d578063d6b25752146106d2578063d8cba251146106f1578063e1a4521814610710578063ed9ed69614610725578063f2fde38b14610742575f5ffd5b8063c118f13314610627578063c3e214fc14610646578063c6e5835c1461066d578063cb2ef6f71461068c578063d2b1fdeb146106bf575f5ffd5b80639299e552116100ee5780639299e5521461057b578063982a5ab31461059a5780639b617d4b146105c6578063a6cf5679146105d9578063b44fcacd14610608575f5ffd5b8063875ebbea146104e657806388cc76a91461050d5780638da5cb5b1461052c57806390018a251461055c575f5ffd5b806344cb99411161019f578063571579781161016f5780635715797814610456578063611c71b414610475578063715018a6146104945780637e943afd146104a8578063863dfc61146104c7575f5ffd5b806344cb9941146103c3578063485cc955146103e25780634cea9eb71461040157806354fd4d5014610420575f5ffd5b806317118469116101e557806317118469146102ca57806322f3e2d4146102dd5780633394177b146102f057806336de974214610304578063384b9fa814610342575f5ffd5b806301ffc9a714610216578063061f96551461024a57806312bafd6f1461026d5780631538a99b1461028e575b5f5ffd5b348015610221575f5ffd5b5061023561023036600461365c565b610761565b60405190151581526020015b60405180910390f35b348015610255575f5ffd5b5061025f60015481565b604051908152602001610241565b348015610278575f5ffd5b5061028c610287366004613697565b6107b2565b005b348015610299575f5ffd5b5061025f6102a83660046136b2565b600560209081525f938452604080852082529284528284209052825290205481565b61028c6102d83660046136f1565b610832565b3480156102e8575f5ffd5b506001610235565b3480156102fb575f5ffd5b5060015461025f565b34801561030f575f5ffd5b5061032361031e366004613708565b6108db565b604080516001600160a01b039093168352602083019190915201610241565b34801561034d575f5ffd5b506103af61035c3660046136f1565b600260208190525f9182526040909120805460018201549282015460038301546004840154600585015460068601546007909601546001600160a01b0395861697969495909316939192909160ff169088565b60405161024198979695949392919061374e565b3480156103ce575f5ffd5b5061025f6103dd3660046137b5565b6108f5565b3480156103ed575f5ffd5b5061028c6103fc3660046137df565b61091c565b34801561040c575f5ffd5b5061025f61041b3660046136f1565b610a17565b34801561042b575f5ffd5b506040805180820190915260058152640312e302e360dc1b60208201525b6040516102419190613816565b348015610461575f5ffd5b5061025f6104703660046137b5565b610a48565b348015610480575f5ffd5b5061028c61048f3660046136f1565b610a73565b34801561049f575f5ffd5b5061028c610ae3565b3480156104b3575f5ffd5b5061028c6104c236600461384b565b610af6565b3480156104d2575f5ffd5b5061025f6104e13660046137b5565b610c96565b3480156104f1575f5ffd5b5061025f610500366004613697565b50678ac7230489e8000090565b348015610518575f5ffd5b5061028c610527366004613960565b610cac565b348015610537575f5ffd5b505f546001600160a01b03165b6040516001600160a01b039091168152602001610241565b348015610567575f5ffd5b5061025f6105763660046136f1565b610ff5565b348015610586575f5ffd5b5061028c6105953660046136f1565b611070565b3480156105a5575f5ffd5b506105b96105b4366004613697565b611216565b6040516102419190613a08565b61028c6105d4366004613a4a565b61127f565b3480156105e4575f5ffd5b506040805180820190915260078152664552433131353560c81b6020820152610449565b348015610613575f5ffd5b50600654610544906001600160a01b031681565b348015610632575f5ffd5b5061025f6106413660046136b2565b611314565b348015610651575f5ffd5b5061025f610660366004613697565b50670de0b6b3a764000090565b348015610678575f5ffd5b5061025f6106873660046137b5565b611320565b348015610697575f5ffd5b5060408051808201909152600b81526a4e465445786368616e676560a81b6020820152610449565b61028c6106cd366004613ae7565b611339565b3480156106dd575f5ffd5b5061028c6106ec366004613a4a565b611422565b3480156106fc575f5ffd5b506105b961070b366004613697565b611458565b34801561071b575f5ffd5b5061025f61271081565b348015610730575f5ffd5b506006546001600160a01b0316610544565b34801561074d575f5ffd5b5061028c61075c366004613697565b6114bf565b5f6001600160e01b031982166301ffc9a760e01b148061079157506001600160e01b03198216632658716360e21b145b806107ac57506301ffc9a760e01b6001600160e01b03198316145b92915050565b6107ba611501565b6001600160a01b0381166107e1576040516337edfb9560e01b815260040160405180910390fd5b600680546001600160a01b038381166001600160a01b0319831681179093556040519116919082907fcdd624838d798ad12ec337847b8a61b5626a76c8cc23224fc62ff78e0e5287af905f90a35050565b8060015f8281526002602052604090206006015460ff16600481111561085a5761085a61373a565b1461087857604051632b34129b60e11b815260040160405180910390fd5b5f818152600260205260409020600481015460059091015461089a9190613b1b565b42106108b95760405163393dabcd60e01b815260040160405180910390fd5b5f82815260026020526040902060078101546108d690849061152d565b505050565b5f5f6108e885858561172b565b915091505b935093915050565b5f606461090b670de0b6b3a7640000606e613b2e565b6109159190613b59565b9392505050565b5f61092561177c565b805490915060ff600160401b820416159067ffffffffffffffff165f8115801561094c5750825b90505f8267ffffffffffffffff1660011480156109685750303b155b905081158015610976575080155b156109945760405163f92ee8a960e01b815260040160405180910390fd5b845467ffffffffffffffff1916600117855583156109be57845460ff60401b1916600160401b1785555b6109c887876117a4565b8315610a0e57845460ff60401b19168555604051600181527fc7f505b2f371ae2175ee4913f4499e1f2633a7b5936321eed1cdaeb6115181d29060200160405180910390a15b50505050505050565b5f81815260026020526040812081670de0b6b3a76400009050808260020154610a409190613b6c565b949350505050565b6004602052815f5260405f208181548110610a61575f80fd5b905f5260205f20015f91509150505481565b610a7b611501565b612710811115610a9e5760405163860da8eb60e01b815260040160405180910390fd5b600180549082905560408051828152602081018490527f8e37539629486a88c6a6083eb90030fb61cb856d56d96f53a326fda0d399ef32910160405180910390a15050565b610aeb611501565b610af45f611826565b565b825f03610b165760405163eb0b76f760e01b815260040160405180910390fd5b815f03610b3657604051634bd6789160e01b815260040160405180910390fd5b805f03610b565760405163563b7da560e11b815260040160405180910390fd5b5f610b648686863330611875565b90505f610b70826118d7565b8051909150610c70576040805180820182526014815273496e73756666696369656e742062616c616e636560601b6020918201529082015180519101207fb8acc3c9ad102fdeca133cb4c053710384eb40f9e746c6d0291fbb5c2759110b01610bec576040516355fb36fb60e11b815260040160405180910390fd5b604080518082018252600c81526b139bdd08185c1c1c9bdd995960a21b6020918201529082015180519101207f8fca93b98568ecf9bf884805f00e5f8b36c4e083b7bea41e7e463286649d7c9f01610c5757604051637f16d4d360e01b815260040160405180910390fd5b6040516355fb36fb60e11b815260040160405180910390fd5b5f610c7c888833611a69565b9050610c8c888887878a86611ac0565b5050505050505050565b5f606461090b670de0b6b3a76400006078613b2e565b6040805160e0810182526001600160a01b03871681526020810186905290810184905260608101839052608081018290523360a08201523060c08201525f80610cf483611ce5565b9150915081610ecb57604080518082019091526015815274082e4e4c2f240d8cadccee8d040dad2e6dac2e8c6d605b1b6020918201528151908201207fe865196c1f38f2bfc192e5d41419bab572f6a57542ed390c0fcd3afe70c1d51601610d6f57604051633c254a5760e01b815260040160405180910390fd5b60408051808201909152601881527724b73b30b634b2103634b9ba34b73390323ab930ba34b7b760411b6020918201528151908201207f33d31e9efc819b4ceaaa9597d77672e690c1b39247fe4d2b6bdef468c217b3bf01610de45760405163563b7da560e11b815260040160405180910390fd5b60408051808201909152601681527516995c9bc81c1c9a58d9481b9bdd08185b1b1bddd95960521b6020918201528151908201207f65a52b7249d2cbf044a0e24b3966793737a9aec00fd257bbc9b69c6bbc6def3c01610e5757604051634bd6789160e01b815260040160405180910390fd5b60408051808201909152601781527616995c9bc8185b5bdd5b9d081b9bdd08185b1b1bddd959604a1b6020918201528151908201207f33fa38612c256dce69a8c7aa6f88de0d0c93b91b5ff74d492f4639eae60692ce01610c575760405163eb0b76f760e01b815260040160405180910390fd5b5f5b8751811015610fea575f610efb8a8a8481518110610eed57610eed613b8b565b602002602001015133611a69565b9050610f568a8a8481518110610f1357610f13613b8b565b6020026020010151898581518110610f2d57610f2d613b8b565b6020026020010151898c8781518110610f4857610f48613b8b565b602002602001015186611ac0565b888281518110610f6857610f68613b8b565b60200260200101518a6001600160a01b0316827f9cbf83eb0287257f7e0019593596d27aa5daa9833462f5dcdb11098941e72fcb338b8781518110610faf57610faf613b8b565b6020026020010151604051610fd99291906001600160a01b03929092168252602082015260400190565b60405180910390a450600101610ecd565b505050505050505050565b5f8181526002602081905260408220805460018201549282015491928492611027926001600160a01b031691906108db565b9150505f61271060015484600201546110409190613b2e565b61104a9190613b59565b90508082846002015461105d9190613b1b565b6110679190613b1b565b95945050505050565b8060015f8281526002602052604090206006015460ff1660048111156110985761109861373a565b146110b657604051632b34129b60e11b815260040160405180910390fd5b5f81815260026020526040902060048101546005909101546110d89190613b1b565b42106110f75760405163393dabcd60e01b815260040160405180910390fd5b5f82815260026020526040902060038101546001600160a01b03163314611131576040516308006a3560e31b815260040160405180910390fd5b5f838152600260209081526040808320600601805460ff1916600417905583546001600160a01b031683526003909152902061116d9084611f54565b60038101546001600160a01b03165f9081526004602052604090206111929084611f54565b80546001600160a01b039081165f9081526005602090815260408083206001860180548552908352818420600387018054871686529084528285209490945554855493549151918516825293929092169186917f9c9f3e97cea44f70e4c2d6e7dad21e05fe60e2b3417c132557ac6de8502fdb7f91015b60405180910390a4505050565b6001600160a01b0381165f9081526003602090815260409182902080548351818402810184019094528084526060939283018282801561127357602002820191905f5260205f20905b81548152602001906001019080831161125f575b50505050509050919050565b80515f036112a057604051633c254a5760e01b815260040160405180910390fd5b5f60025f835f815181106112b6576112b6613b8b565b60209081029190910181015182528101919091526040015f908120546001600160a01b031691506112e78383611f5e565b90508034101561130a57604051630ad3ab1960e31b815260040160405180910390fd5b6108d68383612070565b5f610a40848484611a69565b6003602052815f5260405f208181548110610a61575f80fd5b8160015f8281526002602052604090206006015460ff1660048111156113615761136161373a565b1461137f57604051632b34129b60e11b815260040160405180910390fd5b5f81815260026020526040902060048101546005909101546113a19190613b1b565b42106113c05760405163393dabcd60e01b815260040160405180910390fd5b815f036113e05760405163eb0b76f760e01b815260040160405180910390fd5b5f8381526002602052604090206007810154831115611412576040516355fb36fb60e11b815260040160405180910390fd5b61141c848461152d565b50505050565b80515f5b818110156108d65761145083828151811061144357611443613b8b565b60200260200101516120a6565b600101611426565b6001600160a01b0381165f9081526004602090815260409182902080548351818402810184019094528084526060939283018282801561127357602002820191905f5260205f209081548152602001906001019080831161125f5750505050509050919050565b6114c7611501565b6001600160a01b0381166114f557604051631e4fbdf760e01b81525f60048201526024015b60405180910390fd5b6114fe81611826565b50565b5f546001600160a01b03163314610af45760405163118cdaa760e01b81523360048201526024016114ec565b5f828152600260208190526040822060078101549181015490929190611554908590613b2e565b61155e9190613b59565b825460018401549192505f918291611582916001600160a01b0390911690856108db565b915091505f612710600154856115989190613b2e565b6115a29190613b59565b90505f816115b08487613b1b565b6115ba9190613b1b565b9050803410156115dd57604051630ad3ab1960e31b815260040160405180910390fd5b8554600187015460038801545f92611606926001600160a01b039182169290918c911633612127565b90505f611612826121be565b805190915061163457604051632cfc463160e01b815260040160405180910390fd5b6040805160c08101825260038a01546001600160a01b03908116825288166020820152908101889052606081018690526080810185905260a0810184905261167b816121f2565b89896007015f82825461168e9190613b9f565b909155505060078901545f036116c257885460038a01546116bd918d916001600160a01b039182169116612258565b61171e565b6001890154895460038b0154604080516001600160a01b0392831681523360208201529081018c90529116908d907fd14867ac671c5d9e30faabde36958cbf69bdd56c199a76db4f41a13aa327ffd69060600160405180910390a45b5050505050505050505050565b5f5f5f6040518060800160405280876001600160a01b031681526020018681526020018581526020016103e881525090505f61176682612342565b8051602090910151909890975095505050505050565b5f807ff0c57e16840df040f15088dc2f81fe391c3923bec73e23a9662efc9c229c6a006107ac565b6117ac612451565b6001600160a01b0382166117d3576040516337edfb9560e01b815260040160405180910390fd5b6001600160a01b0381166117fa576040516337edfb9560e01b815260040160405180910390fd5b61180381611826565b50600680546001600160a01b0319166001600160a01b0392909216919091179055565b5f80546001600160a01b038381166001600160a01b0319831681178455604051919092169283917f8be0079c531659141344cd1fd0a4f28419497f9722a3daafe3b4186f6b6457e09190a35050565b6040805160a0810182525f80825260208201819052918101829052606081018290526080810191909152506040805160a0810182526001600160a01b039687168152602081019590955284019290925283166060830152909116608082015290565b60408051606080820183525f80835282840191909152600160208301529183015190910361193b5760408051808201825260208082527f416d6f756e74206d7573742062652067726561746572207468616e207a65726f9082015290820152919050565b815160608301516020840151604051627eeac760e11b81526001600160a01b039283166004820152602481019190915291169062fdd58e90604401602060405180830381865afa9250505080156119af575060408051601f3d908101601f191682019092526119ac91810190613bb2565b60015b6119e75760408051808201825260158152744661696c656420746f206765742062616c616e636560581b602082015290820152919050565b8260400151811015611a2757506040805180820182526014815273496e73756666696369656e742062616c616e636560601b602082015290820152919050565b50611a3182612476565b611a6057604080518082018252600c81526b139bdd08185c1c1c9bdd995960a21b602082015290820152919050565b60018152919050565b6040516bffffffffffffffffffffffff19606085811b821660208401526034830185905283901b1660548201524260688201525f906088016040516020818303038152906040528051906020012090509392505050565b6001600160a01b0386165f90815260056020908152604080832088845282528083203384529091529020548015611b58575f8181526002602052604090206001600682015460ff166004811115611b1957611b1961373a565b148015611b38575080600401548160050154611b359190613b1b565b42105b15611b565760405163020691d960e11b815260040160405180910390fd5b505b60408051610100810182526001600160a01b03898116825260208083018a81528385018a81523360608601908152608086018b81524260a08801908152600160c0890181815260e08a018e90525f8d81526002988990529a909a2089518154908a166001600160a01b031991821617825596518183015594519685019690965591516003840180549190971694169390931790945590516004808301919091559251600582015593516006850180549495949193909260ff1990921691908490811115611c2757611c2761373a565b021790555060e091909101516007909101556001600160a01b0387165f818152600360209081526040808320805460018082018355918552838520018790553380855260048452828520805492830181558552838520909101879055848452600583528184208b85528352818420818552835292819020869055805192835290820188905288929185917f9cbf83eb0287257f7e0019593596d27aa5daa9833462f5dcdb11098941e72fcb910160405180910390a450505050505050565b5f6060826060015151836020015151141580611d0b575082604001515183602001515114155b15611d45575050604080518082019091526015815274082e4e4c2f240d8cadccee8d040dad2e6dac2e8c6d605b1b60208201525f92909150565b8260200151515f03611d7d57505060408051808201909152600c81526b456d7074792061727261797360a01b60208201525f92909150565b82608001515f03611dc057505060408051808201909152601881527724b73b30b634b2103634b9ba34b73390323ab930ba34b7b760411b60208201525f92909150565b5f5b836020015151811015611f395783606001518181518110611de557611de5613b8b565b60200260200101515f03611e2d575f6040518060400160405280601681526020017516995c9bc81c1c9a58d9481b9bdd08185b1b1bddd95960521b8152509250925050915091565b83604001518181518110611e4357611e43613b8b565b60200260200101515f03611e8c575f6040518060400160405280601781526020017616995c9bc8185b5bdd5b9d081b9bdd08185b1b1bddd959604a1b8152509250925050915091565b5f611edf855f015186602001518481518110611eaa57611eaa613b8b565b602002602001015187604001518581518110611ec857611ec8613b8b565b60200260200101518860a001518960c00151611875565b90505f611eeb8261250d565b8051909150611f2f575f611efe84612612565b8260400151604051602001611f14929190613be0565b60405160208183030381529060405294509450505050915091565b5050600101611dc2565b50600160405180602001604052805f81525091509150915091565b6108d6828261270f565b5f805b8351811015612069575f60025f868481518110611f8057611f80613b8b565b602002602001015181526020019081526020015f20905060016004811115611faa57611faa61373a565b600682015460ff166004811115611fc357611fc361373a565b14611fe157604051632b34129b60e11b815260040160405180910390fd5b80600401548160050154611ff59190613b1b565b42106120145760405163393dabcd60e01b815260040160405180910390fd5b80546001600160a01b0385811691161461204157604051633c254a5760e01b815260040160405180910390fd5b5f61204b826127c1565b905080606001518461205d9190613b1b565b93505050600101611f61565b5092915050565b5f5b82518110156108d65761209e83828151811061209057612090613b8b565b60200260200101518361286f565b600101612072565b5f8181526002602052604090206120bc81612956565b60068101805460ff191660041790556120d582826129ef565b6001810154815460038301546040516001600160a01b03918216815291169084907f9c9f3e97cea44f70e4c2d6e7dad21e05fe60e2b3417c132557ac6de8502fdb7f9060200160405180910390a45050565b61215c6040805160c0810182525f8082526020820181905291810182905260608101829052608081018290529060a082015290565b6040518060c00160405280876001600160a01b03168152602001868152602001858152602001846001600160a01b03168152602001836001600160a01b031681526020016002808111156121b2576121b261373a565b90529695505050505050565b6121e260405180606001604052805f15158152602001606081526020015f81525090565b600160a08301526107ac82612a74565b6040805160e08101825282516001600160a01b039081168252602080850151821690830152600654168183015260a08084015160608084019190915292840151608080840191909152840151908201529082015160c082015261225481612baa565b5050565b5f83815260026020818152604080842060068101805460ff19169094179093556001600160a01b03868116808652600584528286206001909501548652938352818520908616855282528084208490559183526003905290206122bb9084611f54565b6001600160a01b0381165f9081526004602052604090206122dc9084611f54565b5f83815260026020818152604092839020600181015492015483516001600160a01b03868116825233938201939093529384015290919084169085907fd14867ac671c5d9e30faabde36958cbf69bdd56c199a76db4f41a13aa327ffd690606001611209565b61234a613626565b81516001600160a01b03166123ae576040518060a001604052805f6001600160a01b031681526020015f81526020015f81526020015f15158152602001604051806040016040528060048152602001634e6f6e6560e01b8152508152509050919050565b6123b782612c20565b90508060600151156123c857919050565b6123d182612c58565b90508060600151156123e257919050565b6123eb82612d3c565b90508060600151156123fc57919050565b6040518060a001604052805f6001600160a01b031681526020015f81526020015f81526020015f15158152602001604051806040016040528060048152602001634e6f6e6560e01b8152508152509050919050565b612459612e11565b610af457604051631afcd79f60e31b815260040160405180910390fd5b80516060820151608083015160405163e985e9c560e01b81525f936001600160a01b03169263e985e9c5926124c2926004016001600160a01b0392831681529116602082015260400190565b602060405180830381865afa9250505080156124fb575060408051601f3d908101601f191682019092526124f891810190613c0f565b60015b156125065792915050565b505f919050565b60408051606080820183525f80835260208301529181019190915281516001600160a01b0316158061254a575060608201516001600160a01b0316155b1561258357604080518082018252601581527416995c9bc81859191c995cdcc81c1c9bdd9a591959605a1b602082015290820152919050565b5f612590835f0151612e2a565b90505f8160028111156125a5576125a561373a565b036125b35761091583612f42565b60018160028111156125c7576125c761373a565b036125d557610915836118d7565b50604080518082018252601881527f556e737570706f72746564204e4654207374616e646172640000000000000000602082015290820152919050565b6060815f036126385750506040805180820190915260018152600360fc1b602082015290565b815f5b8115612661578061264b81613c2e565b915061265a9050600a83613b59565b915061263b565b5f8167ffffffffffffffff81111561267b5761267b61388b565b6040519080825280601f01601f1916602001820160405280156126a5576020820181803683370190505b5090505b8415610a40576126ba600183613b9f565b91506126c7600a86613c46565b6126d2906030613b1b565b60f81b8183815181106126e7576126e7613b8b565b60200101906001600160f81b03191690815f1a905350612708600a86613b59565b94506126a9565b5f805b83548110156127b8578284828154811061272e5761272e613b8b565b905f5260205f200154036127b0578354849061274c90600190613b9f565b8154811061275c5761275c613b8b565b905f5260205f20015484828154811061277757612777613b8b565b905f5260205f2001819055508380548061279357612793613c59565b600190038181905f5260205f20015f9055905560019150506107ac565b600101612712565b505f9392505050565b6127f160405180608001604052805f6001600160a01b031681526020015f81526020015f81526020015f81525090565b815460018301546002840154612811926001600160a01b031691906108db565b60208301526001600160a01b0316815260015460028301546127109161283691613b2e565b6128409190613b59565b604082018190526020820151600284015461285b9190613b1b565b6128659190613b1b565b6060820152919050565b5f82815260026020526040812090612886826127c1565b6001830154600784015460038501549293505f926128b192879290916001600160a01b031633612127565b90505f6128bd826121be565b80519091506128df57604051632cfc463160e01b815260040160405180910390fd5b6040805160c08101825260038601546001600160a01b0390811682528551166020808301919091526002870154828401528501516060808301919091529185015160808201529084015160a0820152612937816121f2565b84546003860154610a0e9189916001600160a01b039182169116612258565b6001600682015460ff1660048111156129715761297161373a565b1461298f57604051632b34129b60e11b815260040160405180910390fd5b806004015481600501546129a39190613b1b565b42106129c25760405163393dabcd60e01b815260040160405180910390fd5b60038101546001600160a01b031633146114fe576040516308006a3560e31b815260040160405180910390fd5b80546001600160a01b03165f908152600360205260409020612a119083611f54565b60038101546001600160a01b03165f908152600460205260409020612a369083611f54565b80546001600160a01b039081165f90815260056020908152604080832060018601548452825280832060039095015490931682529290925281205550565b612a9860405180606001604052805f15158152602001606081526020015f81525090565b81516060830151608084015160208501516040808701519051637921219560e11b81526001600160a01b03948516600482015292841660248401526044830191909152606482015260a060848201525f60a482015291169063f242432a9060c4015f604051808303815f87803b158015612b10575f5ffd5b505af1925050508015612b21575060015b612b9b57612b2d613c6d565b806308c379a003612b565750612b41613c86565b80612b4c5750612b58565b6020820152919050565b505b6040518060400160405280601781526020017f45524331313535207472616e73666572206661696c65640000000000000000008152508160200181905250919050565b60018082526040820152919050565b612bb381613055565b60a081015115612bcf57612bcf81604001518260a00151613116565b5f8160c00151118015612bee575060208101516001600160a01b031615155b15612c0557612c0581602001518260c00151613116565b6080810151156114fe576114fe815f01518260800151613116565b612c28613626565b5f612c35835f01516131a7565b90506001600160a01b03811615612c50576109158184613256565b61091561333d565b612c60613626565b5f5f612c6e845f0151613398565b9150915081612c7f57610a4061333d565b8360600151811115612c9357610a4061333d565b5f612ca0855f015161340d565b90506001600160a01b038116612cb85761106761333d565b5f612710838760400151612ccc9190613b2e565b612cd69190613b59565b90506040518060a00160405280836001600160a01b031681526020018281526020018481526020016001151581526020016040518060400160405280600e81526020016d2130b9b2a1b7b63632b1ba34b7b760911b815250815250945050505050919050565b612d44613626565b5f5f612d5c845f015185602001518660400151613473565b90925090506001600160a01b0382161580612d75575080155b15612d8257610a4061333d565b60408401515f90612d9583612710613b2e565b612d9f9190613b59565b90508460600151811115612db55761106761333d565b6040518060a00160405280846001600160a01b03168152602001838152602001828152602001600115158152602001604051806040016040528060078152602001664552433239383160c81b8152508152509350505050919050565b5f612e1a61177c565b54600160401b900460ff16919050565b5f6001600160a01b038216612e4157506002919050565b6040516301ffc9a760e01b81526380ac58cd60e01b60048201526001600160a01b038316906301ffc9a790602401602060405180830381865afa925050508015612ea8575060408051601f3d908101601f19168201909252612ea591810190613c0f565b60015b15612ebd578015612ebb57505f92915050565b505b6040516301ffc9a760e01b8152636cdb3d1360e11b60048201526001600160a01b038316906301ffc9a790602401602060405180830381865afa925050508015612f24575060408051601f3d908101601f19168201909252612f2191810190613c0f565b60015b15612f3a578015612f385750600192915050565b505b506002919050565b60408051606080820183525f8083526020808401919091528284019190915283519084015192516331a9108f60e11b8152600481019390935290916001600160a01b0390911690636352211e90602401602060405180830381865afa925050508015612fcb575060408051601f3d908101601f19168201909252612fc891810190613d0a565b60015b6130015760408051808201825260138152722330b4b632b2103a379033b2ba1037bbb732b960691b602082015290820152919050565b82606001516001600160a01b0316816001600160a01b03161461304b5750604080518082018252600d81526c2737ba103a34329037bbb732b960991b602082015290820152919050565b50611a31826134f6565b80516001600160a01b031661307d57604051630934734d60e31b815260040160405180910390fd5b60408101516001600160a01b03166130a857604051630934734d60e31b815260040160405180910390fd5b80606001515f036130cc5760405163a48840d560e01b815260040160405180910390fd5b5f8160c001518260a0015183608001516130e69190613b1b565b6130f09190613b1b565b9050816060015181146122545760405163a48840d560e01b815260040160405180910390fd5b8047101561313757604051630a4c318360e41b815260040160405180910390fd5b5f826001600160a01b0316826040515f6040518083038185875af1925050503d805f8114613180576040519150601f19603f3d011682016040523d82523d5f602084013e613185565b606091505b50509050806108d6576040516363fd4d0160e01b815260040160405180910390fd5b60408051600481526024810182526020810180516001600160e01b0316639cfa688360e01b17905290515f91829182916001600160a01b038616916131ec9190613d25565b5f60405180830381855afa9150503d805f8114613224576040519150601f19603f3d011682016040523d82523d5f602084013e613229565b606091505b509150915081801561323d57506020815110155b156127b85780806020019051810190610a409190613d0a565b61325e613626565b5f5f61326985613398565b91509150816132835761327a61333d565b925050506107ac565b83606001518111156132975761327a61333d565b5f6132a18661340d565b90506001600160a01b0381166132c3576132b961333d565b93505050506107ac565b5f6127108387604001516132d79190613b2e565b6132e19190613b59565b90506040518060a00160405280836001600160a01b031681526020018281526020018481526020016001151581526020016040518060400160405280600381526020016246656560e81b81525081525094505050505092915050565b613345613626565b6040518060a001604052805f6001600160a01b031681526020015f81526020015f81526020015f15158152602001604051806040016040528060048152602001634e6f6e6560e01b815250815250905090565b5f5f826001600160a01b031663820bdcdc6040518163ffffffff1660e01b8152600401602060405180830381865afa9250505080156133f4575060408051601f3d908101601f191682019092526133f191810190613bb2565b60015b61340257505f928392509050565b600194909350915050565b5f816001600160a01b0316638da5cb5b6040518163ffffffff1660e01b8152600401602060405180830381865afa925050508015613468575060408051601f3d908101601f1916820190925261346591810190613d0a565b60015b6107ac57505f919050565b60405163152a902d60e11b815260048101839052602481018290525f9081906001600160a01b03861690632a55205a906044016040805180830381865afa9250505080156134de575060408051601f3d908101601f191682019092526134db91810190613d30565b60015b6134ec57505f9050806108ed565b90925090506108ed565b80516060820151608083015160405163e985e9c560e01b81525f936001600160a01b03169263e985e9c592613542926004016001600160a01b0392831681529116602082015260400190565b602060405180830381865afa92505050801561357b575060408051601f3d908101601f1916820190925261357891810190613c0f565b60015b1561359157801561358f5750600192915050565b505b8151602083015160405163020604bf60e21b81526001600160a01b039092169163081812fc916135c79160040190815260200190565b602060405180830381865afa925050508015613600575060408051601f3d908101601f191682019092526135fd91810190613d0a565b60015b156125065782608001516001600160a01b0316816001600160a01b031614915050919050565b6040518060a001604052805f6001600160a01b031681526020015f81526020015f81526020015f15158152602001606081525090565b5f6020828403121561366c575f5ffd5b81356001600160e01b031981168114610915575f5ffd5b6001600160a01b03811681146114fe575f5ffd5b5f602082840312156136a7575f5ffd5b813561091581613683565b5f5f5f606084860312156136c4575f5ffd5b83356136cf81613683565b92506020840135915060408401356136e681613683565b809150509250925092565b5f60208284031215613701575f5ffd5b5035919050565b5f5f5f6060848603121561371a575f5ffd5b833561372581613683565b95602085013595506040909401359392505050565b634e487b7160e01b5f52602160045260245ffd5b6001600160a01b0389811682526020820189905260408201889052861660608201526080810185905260a0810184905261010081016005841061379f57634e487b7160e01b5f52602160045260245ffd5b60c082019390935260e001529695505050505050565b5f5f604083850312156137c6575f5ffd5b82356137d181613683565b946020939093013593505050565b5f5f604083850312156137f0575f5ffd5b82356137fb81613683565b9150602083013561380b81613683565b809150509250929050565b602081525f82518060208401528060208501604085015e5f604082850101526040601f19601f83011684010191505092915050565b5f5f5f5f5f60a0868803121561385f575f5ffd5b853561386a81613683565b97602087013597506040870135966060810135965060800135945092505050565b634e487b7160e01b5f52604160045260245ffd5b601f8201601f1916810167ffffffffffffffff811182821017156138c5576138c561388b565b6040525050565b5f67ffffffffffffffff8211156138e5576138e561388b565b5060051b60200190565b5f82601f8301126138fe575f5ffd5b8135613909816138cc565b604051613916828261389f565b80915082815260208101915060208360051b860101925085831115613939575f5ffd5b602085015b8381101561395657803583526020928301920161393e565b5095945050505050565b5f5f5f5f5f60a08688031215613974575f5ffd5b853561397f81613683565b9450602086013567ffffffffffffffff81111561399a575f5ffd5b6139a6888289016138ef565b945050604086013567ffffffffffffffff8111156139c2575f5ffd5b6139ce888289016138ef565b935050606086013567ffffffffffffffff8111156139ea575f5ffd5b6139f6888289016138ef565b95989497509295608001359392505050565b602080825282518282018190525f918401906040840190835b81811015613a3f578351835260209384019390920191600101613a21565b509095945050505050565b5f60208284031215613a5a575f5ffd5b813567ffffffffffffffff811115613a70575f5ffd5b8201601f81018413613a80575f5ffd5b8035613a8b816138cc565b604051613a98828261389f565b80915082815260208101915060208360051b850101925086831115613abb575f5ffd5b6020840193505b82841015613add578335825260209384019390910190613ac2565b9695505050505050565b5f5f60408385031215613af8575f5ffd5b50508035926020909101359150565b634e487b7160e01b5f52601160045260245ffd5b808201808211156107ac576107ac613b07565b80820281158282048414176107ac576107ac613b07565b634e487b7160e01b5f52601260045260245ffd5b5f82613b6757613b67613b45565b500490565b8181035f83128015838313168383128216171561206957612069613b07565b634e487b7160e01b5f52603260045260245ffd5b818103818111156107ac576107ac613b07565b5f60208284031215613bc2575f5ffd5b5051919050565b5f81518060208401855e5f93019283525090919050565b6502a37b5b2b7160d51b81525f613bfa6006830185613bc9565b6101d160f51b81526110676002820185613bc9565b5f60208284031215613c1f575f5ffd5b81518015158114610915575f5ffd5b5f60018201613c3f57613c3f613b07565b5060010190565b5f82613c5457613c54613b45565b500690565b634e487b7160e01b5f52603160045260245ffd5b5f60033d1115613c835760045f5f3e505f5160e01c5b90565b5f60443d1015613c935790565b6040513d600319016004823e80513d602482011167ffffffffffffffff82111715613cbd57505090565b808201805167ffffffffffffffff811115613cd9575050505090565b3d8401600319018282016020011115613cf3575050505090565b613d026020828501018561389f565b509392505050565b5f60208284031215613d1a575f5ffd5b815161091581613683565b5f6109158284613bc9565b5f5f60408385031215613d41575f5ffd5b8251613d4c81613683565b602093909301519294929350505056fea26469706673582212209fb36cd5ff09cb65f7efde3c6cf2b9ddb75875e88023caf36af5903a605d341164736f6c634300081e0033",
    "linkReferences": {}
  },
  "methodIdentifiers": {
    "BPS_DENOMINATOR()": "e1a45218",
    "batchBuyNFT(bytes32[])": "9b617d4b",
    "batchCancelListing(bytes32[])": "d6b25752",
    "batchListNFT(address,uint256[],uint256[],uint256[],uint256)": "88cc76a9",
    "buyNFT(bytes32)": "17118469",
    "buyNFT(bytes32,uint256)": "d2b1fdeb",
    "cancelListing(bytes32)": "9299e552",
    "contractType()": "cb2ef6f7",
    "get24hVolume(address)": "875ebbea",
    "getBuyerSeesPrice(bytes32)": "90018a25",
    "getFloorDiff(bytes32)": "4cea9eb7",
    "getFloorPrice(address)": "c3e214fc",
    "getGeneratedListingId(address,uint256,address)": "c118f133",
    "getLadderPrice(address,uint256)": "44cb9941",
    "getListingsByCollection(address)": "982a5ab3",
    "getListingsBySeller(address)": "d8cba251",
    "getRoyaltyInfo(address,uint256,uint256)": "36de9742",
    "getTakerFee()": "3394177b",
    "getTopTraitPrice(address,uint256)": "863dfc61",
    "initialize(address,address)": "485cc955",
    "isActive()": "22f3e2d4",
    "listNFT(address,uint256,uint256,uint256,uint256)": "7e943afd",
    "marketplaceWallet()": "ed9ed696",
    "owner()": "8da5cb5b",
    "renounceOwnership()": "715018a6",
    "s_activeListings(address,uint256,address)": "1538a99b",
    "s_listings(bytes32)": "384b9fa8",
    "s_listingsByCollection(address,uint256)": "c6e5835c",
    "s_listingsBySeller(address,uint256)": "57157978",
    "s_marketplaceWallet()": "b44fcacd",
    "s_takerFee()": "061f9655",
    "supportedStandard()": "a6cf5679",
    "supportsInterface(bytes4)": "01ffc9a7",
    "transferOwnership(address)": "f2fde38b",
    "updateMarketplaceWallet(address)": "12bafd6f",
    "updateTakerFee(uint256)": "611c71b4",
    "version()": "54fd4d50"
  },
  "id": 59
}