{
  "abi": [
    {
      "type": "constructor",
      "inputs": [],
      "stateMutability": "nonpayable"
    },
    {
      "type": "function",
      "name": "BPS_DENOMINATOR",
      "inputs": [],
      "outputs": [
        {
          "name": "",
          "type": "uint256",
          "internalType": "uint256"
        }
      ],
      "stateMutability": "view"
    },
    {
      "type": "function",
      "name": "batchBuyNFT",
      "inputs": [
        {
          "name": "m_listingIds",
          "type": "bytes32[]",
          "internalType": "bytes32[]"
        }
      ],
      "outputs": [],
      "stateMutability": "payable"
    },
    {
      "type": "function",
      "name": "batchCancelListing",
      "inputs": [
        {
          "name": "m_listingIds",
          "type": "bytes32[]",
          "internalType": "bytes32[]"
        }
      ],
      "outputs": [],
      "stateMutability": "nonpayable"
    },
    {
      "type": "function",
      "name": "batchListNFT",
      "inputs": [
        {
          "name": "m_contractAddress",
          "type": "address",
          "internalType": "address"
        },
        {
          "name": "m_tokenIds",
          "type": "uint256[]",
          "internalType": "uint256[]"
        },
        {
          "name": "m_prices",
          "type": "uint256[]",
          "internalType": "uint256[]"
        },
        {
          "name": "m_listingDuration",
          "type": "uint256",
          "internalType": "uint256"
        }
      ],
      "outputs": [],
      "stateMutability": "nonpayable"
    },
    {
      "type": "function",
      "name": "buyNFT",
      "inputs": [
        {
          "name": "m_listingId",
          "type": "bytes32",
          "internalType": "bytes32"
        }
      ],
      "outputs": [],
      "stateMutability": "payable"
    },
    {
      "type": "function",
      "name": "cancelListing",
      "inputs": [
        {
          "name": "m_listingId",
          "type": "bytes32",
          "internalType": "bytes32"
        }
      ],
      "outputs": [],
      "stateMutability": "nonpayable"
    },
    {
      "type": "function",
      "name": "contractType",
      "inputs": [],
      "outputs": [
        {
          "name": "",
          "type": "string",
          "internalType": "string"
        }
      ],
      "stateMutability": "pure"
    },
    {
      "type": "function",
      "name": "get24hVolume",
      "inputs": [
        {
          "name": "",
          "type": "address",
          "internalType": "address"
        }
      ],
      "outputs": [
        {
          "name": "",
          "type": "uint256",
          "internalType": "uint256"
        }
      ],
      "stateMutability": "view"
    },
    {
      "type": "function",
      "name": "getBatchPriceBreakdown",
      "inputs": [
        {
          "name": "m_listingIds",
          "type": "bytes32[]",
          "internalType": "bytes32[]"
        }
      ],
      "outputs": [
        {
          "name": "totalPrice",
          "type": "uint256",
          "internalType": "uint256"
        },
        {
          "name": "prices",
          "type": "uint256[]",
          "internalType": "uint256[]"
        },
        {
          "name": "royalties",
          "type": "uint256[]",
          "internalType": "uint256[]"
        },
        {
          "name": "takerFees",
          "type": "uint256[]",
          "internalType": "uint256[]"
        },
        {
          "name": "realityPrices",
          "type": "uint256[]",
          "internalType": "uint256[]"
        },
        {
          "name": "currentTakerFee",
          "type": "uint256",
          "internalType": "uint256"
        }
      ],
      "stateMutability": "view"
    },
    {
      "type": "function",
      "name": "getBuyerSeesPrice",
      "inputs": [
        {
          "name": "m_listingId",
          "type": "bytes32",
          "internalType": "bytes32"
        }
      ],
      "outputs": [
        {
          "name": "",
          "type": "uint256",
          "internalType": "uint256"
        }
      ],
      "stateMutability": "view"
    },
    {
      "type": "function",
      "name": "getFloorDiff",
      "inputs": [
        {
          "name": "m_listingId",
          "type": "bytes32",
          "internalType": "bytes32"
        }
      ],
      "outputs": [
        {
          "name": "",
          "type": "int256",
          "internalType": "int256"
        }
      ],
      "stateMutability": "view"
    },
    {
      "type": "function",
      "name": "getFloorPrice",
      "inputs": [
        {
          "name": "",
          "type": "address",
          "internalType": "address"
        }
      ],
      "outputs": [
        {
          "name": "",
          "type": "uint256",
          "internalType": "uint256"
        }
      ],
      "stateMutability": "view"
    },
    {
      "type": "function",
      "name": "getGeneratedListingId",
      "inputs": [
        {
          "name": "m_contractAddress",
          "type": "address",
          "internalType": "address"
        },
        {
          "name": "m_tokenId",
          "type": "uint256",
          "internalType": "uint256"
        },
        {
          "name": "m_sender",
          "type": "address",
          "internalType": "address"
        }
      ],
      "outputs": [
        {
          "name": "",
          "type": "bytes32",
          "internalType": "bytes32"
        }
      ],
      "stateMutability": "view"
    },
    {
      "type": "function",
      "name": "getLadderPrice",
      "inputs": [
        {
          "name": "m_contractAddress",
          "type": "address",
          "internalType": "address"
        },
        {
          "name": "",
          "type": "uint256",
          "internalType": "uint256"
        }
      ],
      "outputs": [
        {
          "name": "",
          "type": "uint256",
          "internalType": "uint256"
        }
      ],
      "stateMutability": "view"
    },
    {
      "type": "function",
      "name": "getListingsByCollection",
      "inputs": [
        {
          "name": "m_contractAddress",
          "type": "address",
          "internalType": "address"
        }
      ],
      "outputs": [
        {
          "name": "",
          "type": "bytes32[]",
          "internalType": "bytes32[]"
        }
      ],
      "stateMutability": "view"
    },
    {
      "type": "function",
      "name": "getListingsBySeller",
      "inputs": [
        {
          "name": "m_seller",
          "type": "address",
          "internalType": "address"
        }
      ],
      "outputs": [
        {
          "name": "",
          "type": "bytes32[]",
          "internalType": "bytes32[]"
        }
      ],
      "stateMutability": "view"
    },
    {
      "type": "function",
      "name": "getRoyaltyInfo",
      "inputs": [
        {
          "name": "m_contractAddress",
          "type": "address",
          "internalType": "address"
        },
        {
          "name": "m_tokenId",
          "type": "uint256",
          "internalType": "uint256"
        },
        {
          "name": "m_salePrice",
          "type": "uint256",
          "internalType": "uint256"
        }
      ],
      "outputs": [
        {
          "name": "receiver",
          "type": "address",
          "internalType": "address"
        },
        {
          "name": "royaltyAmount",
          "type": "uint256",
          "internalType": "uint256"
        }
      ],
      "stateMutability": "view"
    },
    {
      "type": "function",
      "name": "getTakerFee",
      "inputs": [],
      "outputs": [
        {
          "name": "",
          "type": "uint256",
          "internalType": "uint256"
        }
      ],
      "stateMutability": "view"
    },
    {
      "type": "function",
      "name": "getTopTraitPrice",
      "inputs": [
        {
          "name": "m_contractAddress",
          "type": "address",
          "internalType": "address"
        },
        {
          "name": "",
          "type": "uint256",
          "internalType": "uint256"
        }
      ],
      "outputs": [
        {
          "name": "",
          "type": "uint256",
          "internalType": "uint256"
        }
      ],
      "stateMutability": "view"
    },
    {
      "type": "function",
      "name": "initialize",
      "inputs": [
        {
          "name": "m_marketplaceWallet",
          "type": "address",
          "internalType": "address"
        },
        {
          "name": "m_owner",
          "type": "address",
          "internalType": "address"
        }
      ],
      "outputs": [],
      "stateMutability": "nonpayable"
    },
    {
      "type": "function",
      "name": "isActive",
      "inputs": [],
      "outputs": [
        {
          "name": "",
          "type": "bool",
          "internalType": "bool"
        }
      ],
      "stateMutability": "view"
    },
    {
      "type": "function",
      "name": "listNFT",
      "inputs": [
        {
          "name": "m_contractAddress",
          "type": "address",
          "internalType": "address"
        },
        {
          "name": "m_tokenId",
          "type": "uint256",
          "internalType": "uint256"
        },
        {
          "name": "m_price",
          "type": "uint256",
          "internalType": "uint256"
        },
        {
          "name": "m_listingDuration",
          "type": "uint256",
          "internalType": "uint256"
        }
      ],
      "outputs": [],
      "stateMutability": "nonpayable"
    },
    {
      "type": "function",
      "name": "marketplaceWallet",
      "inputs": [],
      "outputs": [
        {
          "name": "",
          "type": "address",
          "internalType": "address"
        }
      ],
      "stateMutability": "view"
    },
    {
      "type": "function",
      "name": "owner",
      "inputs": [],
      "outputs": [
        {
          "name": "",
          "type": "address",
          "internalType": "address"
        }
      ],
      "stateMutability": "view"
    },
    {
      "type": "function",
      "name": "renounceOwnership",
      "inputs": [],
      "outputs": [],
      "stateMutability": "nonpayable"
    },
    {
      "type": "function",
      "name": "s_activeListings",
      "inputs": [
        {
          "name": "",
          "type": "address",
          "internalType": "address"
        },
        {
          "name": "",
          "type": "uint256",
          "internalType": "uint256"
        },
        {
          "name": "",
          "type": "address",
          "internalType": "address"
        }
      ],
      "outputs": [
        {
          "name": "",
          "type": "bytes32",
          "internalType": "bytes32"
        }
      ],
      "stateMutability": "view"
    },
    {
      "type": "function",
      "name": "s_listings",
      "inputs": [
        {
          "name": "",
          "type": "bytes32",
          "internalType": "bytes32"
        }
      ],
      "outputs": [
        {
          "name": "contractAddress",
          "type": "address",
          "internalType": "address"
        },
        {
          "name": "tokenId",
          "type": "uint256",
          "internalType": "uint256"
        },
        {
          "name": "price",
          "type": "uint256",
          "internalType": "uint256"
        },
        {
          "name": "seller",
          "type": "address",
          "internalType": "address"
        },
        {
          "name": "listingDuration",
          "type": "uint256",
          "internalType": "uint256"
        },
        {
          "name": "listingStart",
          "type": "uint256",
          "internalType": "uint256"
        },
        {
          "name": "status",
          "type": "uint8",
          "internalType": "enum BaseNFTExchange.ListingStatus"
        },
        {
          "name": "amount",
          "type": "uint256",
          "internalType": "uint256"
        }
      ],
      "stateMutability": "view"
    },
    {
      "type": "function",
      "name": "s_listingsByCollection",
      "inputs": [
        {
          "name": "",
          "type": "address",
          "internalType": "address"
        },
        {
          "name": "",
          "type": "uint256",
          "internalType": "uint256"
        }
      ],
      "outputs": [
        {
          "name": "",
          "type": "bytes32",
          "internalType": "bytes32"
        }
      ],
      "stateMutability": "view"
    },
    {
      "type": "function",
      "name": "s_listingsBySeller",
      "inputs": [
        {
          "name": "",
          "type": "address",
          "internalType": "address"
        },
        {
          "name": "",
          "type": "uint256",
          "internalType": "uint256"
        }
      ],
      "outputs": [
        {
          "name": "",
          "type": "bytes32",
          "internalType": "bytes32"
        }
      ],
      "stateMutability": "view"
    },
    {
      "type": "function",
      "name": "s_marketplaceWallet",
      "inputs": [],
      "outputs": [
        {
          "name": "",
          "type": "address",
          "internalType": "address"
        }
      ],
      "stateMutability": "view"
    },
    {
      "type": "function",
      "name": "s_takerFee",
      "inputs": [],
      "outputs": [
        {
          "name": "",
          "type": "uint256",
          "internalType": "uint256"
        }
      ],
      "stateMutability": "view"
    },
    {
      "type": "function",
      "name": "supportedStandard",
      "inputs": [],
      "outputs": [
        {
          "name": "",
          "type": "string",
          "internalType": "string"
        }
      ],
      "stateMutability": "pure"
    },
    {
      "type": "function",
      "name": "supportsInterface",
      "inputs": [
        {
          "name": "interfaceId",
          "type": "bytes4",
          "internalType": "bytes4"
        }
      ],
      "outputs": [
        {
          "name": "",
          "type": "bool",
          "internalType": "bool"
        }
      ],
      "stateMutability": "view"
    },
    {
      "type": "function",
      "name": "transferOwnership",
      "inputs": [
        {
          "name": "newOwner",
          "type": "address",
          "internalType": "address"
        }
      ],
      "outputs": [],
      "stateMutability": "nonpayable"
    },
    {
      "type": "function",
      "name": "updateMarketplaceWallet",
      "inputs": [
        {
          "name": "m_newMarketplaceWallet",
          "type": "address",
          "internalType": "address"
        }
      ],
      "outputs": [],
      "stateMutability": "nonpayable"
    },
    {
      "type": "function",
      "name": "updateTakerFee",
      "inputs": [
        {
          "name": "m_newTakerFee",
          "type": "uint256",
          "internalType": "uint256"
        }
      ],
      "outputs": [],
      "stateMutability": "nonpayable"
    },
    {
      "type": "function",
      "name": "version",
      "inputs": [],
      "outputs": [
        {
          "name": "",
          "type": "string",
          "internalType": "string"
        }
      ],
      "stateMutability": "pure"
    },
    {
      "type": "event",
      "name": "Initialized",
      "inputs": [
        {
          "name": "version",
          "type": "uint64",
          "indexed": false,
          "internalType": "uint64"
        }
      ],
      "anonymous": false
    },
    {
      "type": "event",
      "name": "ListingCancelled",
      "inputs": [
        {
          "name": "listingId",
          "type": "bytes32",
          "indexed": true,
          "internalType": "bytes32"
        },
        {
          "name": "contractAddress",
          "type": "address",
          "indexed": true,
          "internalType": "address"
        },
        {
          "name": "tokenId",
          "type": "uint256",
          "indexed": true,
          "internalType": "uint256"
        },
        {
          "name": "seller",
          "type": "address",
          "indexed": false,
          "internalType": "address"
        }
      ],
      "anonymous": false
    },
    {
      "type": "event",
      "name": "MarketplaceWalletUpdated",
      "inputs": [
        {
          "name": "oldWallet",
          "type": "address",
          "indexed": true,
          "internalType": "address"
        },
        {
          "name": "newWallet",
          "type": "address",
          "indexed": true,
          "internalType": "address"
        }
      ],
      "anonymous": false
    },
    {
      "type": "event",
      "name": "NFTListed",
      "inputs": [
        {
          "name": "listingId",
          "type": "bytes32",
          "indexed": true,
          "internalType": "bytes32"
        },
        {
          "name": "contractAddress",
          "type": "address",
          "indexed": true,
          "internalType": "address"
        },
        {
          "name": "tokenId",
          "type": "uint256",
          "indexed": true,
          "internalType": "uint256"
        },
        {
          "name": "seller",
          "type": "address",
          "indexed": false,
          "internalType": "address"
        },
        {
          "name": "price",
          "type": "uint256",
          "indexed": false,
          "internalType": "uint256"
        }
      ],
      "anonymous": false
    },
    {
      "type": "event",
      "name": "NFTSold",
      "inputs": [
        {
          "name": "listingId",
          "type": "bytes32",
          "indexed": true,
          "internalType": "bytes32"
        },
        {
          "name": "contractAddress",
          "type": "address",
          "indexed": true,
          "internalType": "address"
        },
        {
          "name": "tokenId",
          "type": "uint256",
          "indexed": true,
          "internalType": "uint256"
        },
        {
          "name": "seller",
          "type": "address",
          "indexed": false,
          "internalType": "address"
        },
        {
          "name": "buyer",
          "type": "address",
          "indexed": false,
          "internalType": "address"
        },
        {
          "name": "price",
          "type": "uint256",
          "indexed": false,
          "internalType": "uint256"
        }
      ],
      "anonymous": false
    },
    {
      "type": "event",
      "name": "OwnershipTransferred",
      "inputs": [
        {
          "name": "previousOwner",
          "type": "address",
          "indexed": true,
          "internalType": "address"
        },
        {
          "name": "newOwner",
          "type": "address",
          "indexed": true,
          "internalType": "address"
        }
      ],
      "anonymous": false
    },
    {
      "type": "event",
      "name": "TakerFeeUpdated",
      "inputs": [
        {
          "name": "oldFee",
          "type": "uint256",
          "indexed": false,
          "internalType": "uint256"
        },
        {
          "name": "newFee",
          "type": "uint256",
          "indexed": false,
          "internalType": "uint256"
        }
      ],
      "anonymous": false
    },
    {
      "type": "error",
      "name": "InvalidInitialization",
      "inputs": []
    },
    {
      "type": "error",
      "name": "NFTExchange__ArrayLengthMismatch",
      "inputs": []
    },
    {
      "type": "error",
      "name": "NFTExchange__DurationMustBeGreaterThanZero",
      "inputs": []
    },
    {
      "type": "error",
      "name": "NFTExchange__InsufficientPayment",
      "inputs": []
    },
    {
      "type": "error",
      "name": "NFTExchange__InvalidMarketplaceWallet",
      "inputs": []
    },
    {
      "type": "error",
      "name": "NFTExchange__InvalidTakerFee",
      "inputs": []
    },
    {
      "type": "error",
      "name": "NFTExchange__ListingExpired",
      "inputs": []
    },
    {
      "type": "error",
      "name": "NFTExchange__MarketplaceNotApproved",
      "inputs": []
    },
    {
      "type": "error",
      "name": "NFTExchange__NFTAlreadyListed",
      "inputs": []
    },
    {
      "type": "error",
      "name": "NFTExchange__NFTNotActive",
      "inputs": []
    },
    {
      "type": "error",
      "name": "NFTExchange__NotTheOwner",
      "inputs": []
    },
    {
      "type": "error",
      "name": "NFTExchange__PriceMustBeGreaterThanZero",
      "inputs": []
    },
    {
      "type": "error",
      "name": "NFTExchange__TransferToSellerFailed",
      "inputs": []
    },
    {
      "type": "error",
      "name": "NotInitializing",
      "inputs": []
    },
    {
      "type": "error",
      "name": "OwnableInvalidOwner",
      "inputs": [
        {
          "name": "owner",
          "type": "address",
          "internalType": "address"
        }
      ]
    },
    {
      "type": "error",
      "name": "OwnableUnauthorizedAccount",
      "inputs": [
        {
          "name": "account",
          "type": "address",
          "internalType": "address"
        }
      ]
    },
    {
      "type": "error",
      "name": "PaymentDistribution__InsufficientBalance",
      "inputs": []
    },
    {
      "type": "error",
      "name": "PaymentDistribution__InvalidAmount",
      "inputs": []
    },
    {
      "type": "error",
      "name": "PaymentDistribution__TransferFailed",
      "inputs": []
    },
    {
      "type": "error",
      "name": "PaymentDistribution__ZeroAddress",
      "inputs": []
    }
  ],
  "bytecode": {
    "object": "0x608060405260c86001553480156013575f5ffd5b503380603857604051631e4fbdf760e01b81525f600482015260240160405180910390fd5b603f816044565b506093565b5f80546001600160a01b038381166001600160a01b0319831681178455604051919092169283917f8be0079c531659141344cd1fd0a4f28419497f9722a3daafe3b4186f6b6457e09190a35050565b613f75806100a05f395ff3fe608060405260043610610212575f3560e01c8063863dfc611161011e578063b44fcacd116100a8578063d6b257521161006d578063d6b25752146106ef578063d8cba2511461070e578063e1a452181461072d578063ed9ed69614610742578063f2fde38b1461075f575f5ffd5b8063b44fcacd14610638578063c118f13314610657578063c3e214fc14610676578063c6e5835c1461069d578063cb2ef6f7146106bc575f5ffd5b80639299e552116100ee5780639299e5521461058d578063982a5ab3146105ac5780639b617d4b146105d8578063a6cf5679146105eb578063a801ec6f14610619575f5ffd5b8063863dfc61146104f8578063875ebbea146105175780638da5cb5b1461053e57806390018a251461056e575f5ffd5b8063384b9fa81161019f5780634cea9eb71161016f5780634cea9eb71461045157806354fd4d501461047057806357157978146104a6578063611c71b4146104c5578063715018a6146104e4575f5ffd5b8063384b9fa8146103735780633c44a5f0146103f457806344cb994114610413578063485cc95514610432575f5ffd5b806317118469116101e557806317118469146102ca578063200d6542146102dd57806322f3e2d41461030e5780633394177b1461032157806336de974214610335575f5ffd5b806301ffc9a714610216578063061f96551461024a57806312bafd6f1461026d5780631538a99b1461028e575b5f5ffd5b348015610221575f5ffd5b506102356102303660046137f8565b61077e565b60405190151581526020015b60405180910390f35b348015610255575f5ffd5b5061025f60015481565b604051908152602001610241565b348015610278575f5ffd5b5061028c610287366004613833565b6107cf565b005b348015610299575f5ffd5b5061025f6102a836600461384e565b600560209081525f938452604080852082529284528284209052825290205481565b61028c6102d836600461388d565b61084f565b3480156102e8575f5ffd5b506102fc6102f7366004613906565b610a3d565b604051610241969594939291906139dc565b348015610319575f5ffd5b506001610235565b34801561032c575f5ffd5b5060015461025f565b348015610340575f5ffd5b5061035461034f366004613a42565b610d50565b604080516001600160a01b039093168352602083019190915201610241565b34801561037e575f5ffd5b506103e061038d36600461388d565b600260208190525f9182526040909120805460018201549282015460038301546004840154600585015460068601546007909601546001600160a01b0395861697969495909316939192909160ff169088565b604051610241989796959493929190613a88565b3480156103ff575f5ffd5b5061028c61040e366004613aef565b610d6a565b34801561041e575f5ffd5b5061025f61042d366004613b27565b610f2d565b34801561043d575f5ffd5b5061028c61044c366004613b51565b610f54565b34801561045c575f5ffd5b5061025f61046b36600461388d565b61104d565b34801561047b575f5ffd5b506040805180820190915260058152640312e302e360dc1b60208201525b6040516102419190613b88565b3480156104b1575f5ffd5b5061025f6104c0366004613b27565b61107e565b3480156104d0575f5ffd5b5061028c6104df36600461388d565b6110a9565b3480156104ef575f5ffd5b5061028c611119565b348015610503575f5ffd5b5061025f610512366004613b27565b61112c565b348015610522575f5ffd5b5061025f610531366004613833565b50678ac7230489e8000090565b348015610549575f5ffd5b505f546001600160a01b03165b6040516001600160a01b039091168152602001610241565b348015610579575f5ffd5b5061025f61058836600461388d565b611142565b348015610598575f5ffd5b5061028c6105a736600461388d565b6111bd565b3480156105b7575f5ffd5b506105cb6105c6366004613833565b611363565b6040516102419190613bbd565b61028c6105e6366004613906565b6113cc565b3480156105f6575f5ffd5b5060408051808201909152600681526545524337323160d01b6020820152610499565b348015610624575f5ffd5b5061028c610633366004613c70565b611466565b348015610643575f5ffd5b50600654610556906001600160a01b031681565b348015610662575f5ffd5b5061025f61067136600461384e565b6117d1565b348015610681575f5ffd5b5061025f610690366004613833565b50670de0b6b3a764000090565b3480156106a8575f5ffd5b5061025f6106b7366004613b27565b6117dd565b3480156106c7575f5ffd5b5060408051808201909152600b81526a4e465445786368616e676560a81b6020820152610499565b3480156106fa575f5ffd5b5061028c610709366004613906565b6117f6565b348015610719575f5ffd5b506105cb610728366004613833565b61182c565b348015610738575f5ffd5b5061025f61271081565b34801561074d575f5ffd5b506006546001600160a01b0316610556565b34801561076a575f5ffd5b5061028c610779366004613833565b611893565b5f6001600160e01b031982166301ffc9a760e01b14806107ae57506001600160e01b03198216632658716360e21b145b806107c957506301ffc9a760e01b6001600160e01b03198316145b92915050565b6107d76118d5565b6001600160a01b0381166107fe576040516337edfb9560e01b815260040160405180910390fd5b600680546001600160a01b038381166001600160a01b0319831681179093556040519116919082907fcdd624838d798ad12ec337847b8a61b5626a76c8cc23224fc62ff78e0e5287af905f90a35050565b8060015f8281526002602052604090206006015460ff16600481111561087757610877613a74565b1461089557604051632b34129b60e11b815260040160405180910390fd5b5f81815260026020526040902060048101546005909101546108b79190613d00565b42106108d65760405163393dabcd60e01b815260040160405180910390fd5b5f828152600260208190526040822080546001820154928201549193928392610909926001600160a01b03169190610d50565b915091505f61271060015485600201546109239190613d13565b61092d9190613d3e565b90505f818386600201546109419190613d00565b61094b9190613d00565b90508034101561096e57604051630ad3ab1960e31b815260040160405180910390fd5b845460018087015460038801545f93610997936001600160a01b03918216939290911633611901565b90505f6109a382611998565b80519091506109c557604051632cfc463160e01b815260040160405180910390fd5b6040805160c08101825260038901546001600160a01b03908116825288166020820152600289015491810191909152606081018690526080810185905260a08101849052610a12816119cb565b87546003890154610a31918c916001600160a01b039182169116611a31565b50505050505050505050565b5f6060806060805f86515f03610a6657604051633c254a5760e01b815260040160405180910390fd5b5f60025f895f81518110610a7c57610a7c613d51565b60209081029190910181015182528101919091526040015f205488516001600160a01b0390911691506001600160401b03811115610abc57610abc6138a4565b604051908082528060200260200182016040528015610ae5578160200160208202803683370190505b50955087516001600160401b03811115610b0157610b016138a4565b604051908082528060200260200182016040528015610b2a578160200160208202803683370190505b50945087516001600160401b03811115610b4657610b466138a4565b604051908082528060200260200182016040528015610b6f578160200160208202803683370190505b50935087516001600160401b03811115610b8b57610b8b6138a4565b604051908082528060200260200182016040528015610bb4578160200160208202803683370190505b5060015490935091505f5b8851811015610d45575f60025f8b8481518110610bde57610bde613d51565b60209081029190910181015182528101919091526040015f2080549091506001600160a01b03848116911614610c2757604051633c254a5760e01b815260040160405180910390fd5b6001600682015460ff166004811115610c4257610c42613a74565b14610c6057604051632b34129b60e11b815260040160405180910390fd5b80600401548160050154610c749190613d00565b4210610c935760405163393dabcd60e01b815260040160405180910390fd5b5f610c9d82611b1b565b90508160020154898481518110610cb657610cb6613d51565b6020026020010181815250508060200151888481518110610cd957610cd9613d51565b6020026020010181815250508060400151878481518110610cfc57610cfc613d51565b6020026020010181815250508060600151868481518110610d1f57610d1f613d51565b60209081029190910101526060810151610d39908b613d00565b99505050600101610bbf565b505091939550919395565b5f5f610d5d858585611bc9565b915091505b935093915050565b815f03610d8a57604051634bd6789160e01b815260040160405180910390fd5b805f03610daa5760405163563b7da560e11b815260040160405180910390fd5b5f610db9858560013330611c1a565b90505f610dc582611c7c565b8051909150610ebe57604080518082018252600d81526c2737ba103a34329037bbb732b960991b6020918201529082015180519101207f8d13ff210f5b09b80ef0d5a3e8bd05482acc9becf123c9ae7d0c3310a79b0d5b01610e3a576040516308006a3560e31b815260040160405180910390fd5b604080518082018252600c81526b139bdd08185c1c1c9bdd995960a21b6020918201529082015180519101207f8fca93b98568ecf9bf884805f00e5f8b36c4e083b7bea41e7e463286649d7c9f01610ea557604051637f16d4d360e01b815260040160405180910390fd5b6040516308006a3560e31b815260040160405180910390fd5b5f610eca878733611dc7565b9050610edb87878787600186611e1e565b604080513381526020810187905287916001600160a01b038a169184917f9cbf83eb0287257f7e0019593596d27aa5daa9833462f5dcdb11098941e72fcb91015b60405180910390a450505050505050565b5f6064610f43670de0b6b3a7640000606e613d13565b610f4d9190613d3e565b9392505050565b5f610f5d612037565b805490915060ff600160401b82041615906001600160401b03165f81158015610f835750825b90505f826001600160401b03166001148015610f9e5750303b155b905081158015610fac575080155b15610fca5760405163f92ee8a960e01b815260040160405180910390fd5b845467ffffffffffffffff191660011785558315610ff457845460ff60401b1916600160401b1785555b610ffe878761205f565b831561104457845460ff60401b19168555604051600181527fc7f505b2f371ae2175ee4913f4499e1f2633a7b5936321eed1cdaeb6115181d29060200160405180910390a15b50505050505050565b5f81815260026020526040812081670de0b6b3a764000090508082600201546110769190613d65565b949350505050565b6004602052815f5260405f208181548110611097575f80fd5b905f5260205f20015f91509150505481565b6110b16118d5565b6127108111156110d45760405163860da8eb60e01b815260040160405180910390fd5b600180549082905560408051828152602081018490527f8e37539629486a88c6a6083eb90030fb61cb856d56d96f53a326fda0d399ef32910160405180910390a15050565b6111216118d5565b61112a5f6120e1565b565b5f6064610f43670de0b6b3a76400006078613d13565b5f8181526002602081905260408220805460018201549282015491928492611174926001600160a01b03169190610d50565b9150505f612710600154846002015461118d9190613d13565b6111979190613d3e565b9050808284600201546111aa9190613d00565b6111b49190613d00565b95945050505050565b8060015f8281526002602052604090206006015460ff1660048111156111e5576111e5613a74565b1461120357604051632b34129b60e11b815260040160405180910390fd5b5f81815260026020526040902060048101546005909101546112259190613d00565b42106112445760405163393dabcd60e01b815260040160405180910390fd5b5f82815260026020526040902060038101546001600160a01b0316331461127e576040516308006a3560e31b815260040160405180910390fd5b5f838152600260209081526040808320600601805460ff1916600417905583546001600160a01b03168352600390915290206112ba9084612130565b60038101546001600160a01b03165f9081526004602052604090206112df9084612130565b80546001600160a01b039081165f9081526005602090815260408083206001860180548552908352818420600387018054871686529084528285209490945554855493549151918516825293929092169186917f9c9f3e97cea44f70e4c2d6e7dad21e05fe60e2b3417c132557ac6de8502fdb7f91015b60405180910390a4505050565b6001600160a01b0381165f908152600360209081526040918290208054835181840281018401909452808452606093928301828280156113c057602002820191905f5260205f20905b8154815260200190600101908083116113ac575b50505050509050919050565b80515f036113ed57604051633c254a5760e01b815260040160405180910390fd5b5f60025f835f8151811061140357611403613d51565b60209081029190910181015182528101919091526040015f908120546001600160a01b03169150611434838361213a565b90508034101561145757604051630ad3ab1960e31b815260040160405180910390fd5b6114618383612240565b505050565b825115801561147457508151155b6117cb57815183511461149a57604051633c254a5760e01b815260040160405180910390fd5b5f83516001600160401b038111156114b4576114b46138a4565b6040519080825280602002602001820160405280156114dd578160200160208202803683370190505b5090505f5b84518110156115125760018282815181106114ff576114ff613d51565b60209081029190910101526001016114e2565b506040805160e0810182526001600160a01b03871681526020810186905290810182905260608101849052608081018390523360a08201523060c08201525f8061155b83612276565b91509150816116be57604080518082019091526015815274082e4e4c2f240d8cadccee8d040dad2e6dac2e8c6d605b1b6020918201528151908201207fe865196c1f38f2bfc192e5d41419bab572f6a57542ed390c0fcd3afe70c1d516016115d657604051633c254a5760e01b815260040160405180910390fd5b60408051808201909152601881527724b73b30b634b2103634b9ba34b73390323ab930ba34b7b760411b6020918201528151908201207f33d31e9efc819b4ceaaa9597d77672e690c1b39247fe4d2b6bdef468c217b3bf0161164b5760405163563b7da560e11b815260040160405180910390fd5b60408051808201909152601681527516995c9bc81c1c9a58d9481b9bdd08185b1b1bddd95960521b6020918201528151908201207f65a52b7249d2cbf044a0e24b3966793737a9aec00fd257bbc9b69c6bbc6def3c01610ea557604051634bd6789160e01b815260040160405180910390fd5b5f5b87518110156117c5575f6116ee8a8a84815181106116e0576116e0613d51565b602002602001015133611dc7565b90506117318a8a848151811061170657611706613d51565b60200260200101518a858151811061172057611720613d51565b60200260200101518a600186611e1e565b88828151811061174357611743613d51565b60200260200101518a6001600160a01b0316827f9cbf83eb0287257f7e0019593596d27aa5daa9833462f5dcdb11098941e72fcb338c878151811061178a5761178a613d51565b60200260200101516040516117b49291906001600160a01b03929092168252602082015260400190565b60405180910390a4506001016116c0565b50505050505b50505050565b5f611076848484611dc7565b6003602052815f5260405f208181548110611097575f80fd5b80515f5b818110156114615761182483828151811061181757611817613d51565b60200260200101516124eb565b6001016117fa565b6001600160a01b0381165f908152600460209081526040918290208054835181840281018401909452808452606093928301828280156113c057602002820191905f5260205f20908154815260200190600101908083116113ac5750505050509050919050565b61189b6118d5565b6001600160a01b0381166118c957604051631e4fbdf760e01b81525f60048201526024015b60405180910390fd5b6118d2816120e1565b50565b5f546001600160a01b0316331461112a5760405163118cdaa760e01b81523360048201526024016118c0565b6119366040805160c0810182525f8082526020820181905291810182905260608101829052608081018290529060a082015290565b6040518060c00160405280876001600160a01b03168152602001868152602001858152602001846001600160a01b03168152602001836001600160a01b0316815260200160028081111561198c5761198c613a74565b90529695505050505050565b6119bc60405180606001604052805f15158152602001606081526020015f81525090565b5f60a08301526107c98261256c565b6040805160e08101825282516001600160a01b039081168252602080850151821690830152600654168183015260a08084015160608084019190915292840151608080840191909152840151908201529082015160c0820152611a2d81612681565b5050565b5f83815260026020818152604080842060068101805460ff19169094179093556001600160a01b0386811680865260058452828620600190950154865293835281852090861685528252808420849055918352600390529020611a949084612130565b6001600160a01b0381165f908152600460205260409020611ab59084612130565b5f83815260026020818152604092839020600181015492015483516001600160a01b03868116825233938201939093529384015290919084169085907fd14867ac671c5d9e30faabde36958cbf69bdd56c199a76db4f41a13aa327ffd690606001611356565b611b4b60405180608001604052805f6001600160a01b031681526020015f81526020015f81526020015f81525090565b815460018301546002840154611b6b926001600160a01b03169190610d50565b60208301526001600160a01b03168152600154600283015461271091611b9091613d13565b611b9a9190613d3e565b6040820181905260208201516002840154611bb59190613d00565b611bbf9190613d00565b6060820152919050565b5f5f5f6040518060800160405280876001600160a01b031681526020018681526020018581526020016103e881525090505f611c04826126f7565b8051602090910151909890975095505050505050565b6040805160a0810182525f80825260208201819052918101829052606081018290526080810191909152506040805160a0810182526001600160a01b039687168152602081019590955284019290925283166060830152909116608082015290565b60408051606080820183525f8083526020808401919091528284019190915283519084015192516331a9108f60e11b8152600481019390935290916001600160a01b0390911690636352211e90602401602060405180830381865afa925050508015611d05575060408051601f3d908101601f19168201909252611d0291810190613d84565b60015b611d3b5760408051808201825260138152722330b4b632b2103a379033b2ba1037bbb732b960691b602082015290820152919050565b82606001516001600160a01b0316816001600160a01b031614611d855750604080518082018252600d81526c2737ba103a34329037bbb732b960991b602082015290820152919050565b50611d8f82612806565b611dbe57604080518082018252600c81526b139bdd08185c1c1c9bdd995960a21b602082015290820152919050565b60018152919050565b6040516bffffffffffffffffffffffff19606085811b821660208401526034830185905283901b1660548201524260688201525f906088016040516020818303038152906040528051906020012090509392505050565b6001600160a01b0386165f90815260056020908152604080832088845282528083203384529091529020548015611eb6575f8181526002602052604090206001600682015460ff166004811115611e7757611e77613a74565b148015611e96575080600401548160050154611e939190613d00565b42105b15611eb45760405163020691d960e11b815260040160405180910390fd5b505b60408051610100810182526001600160a01b03898116825260208083018a81528385018a81523360608601908152608086018b81524260a08801908152600160c0890181815260e08a018e90525f8d81526002988990529a909a2089518154908a166001600160a01b031991821617825596518183015594519685019690965591516003840180549190971694169390931790945590516004808301919091559251600582015593516006850180549495949193909260ff1990921691908490811115611f8557611f85613a74565b021790555060e091909101516007909101556001600160a01b0387165f818152600360209081526040808320805460018082018355918552838520018790553380855260048452828520805492830181558552838520909101879055848452600583528184208b85528352818420818552835292819020869055805192835290820188905288929185917f9cbf83eb0287257f7e0019593596d27aa5daa9833462f5dcdb11098941e72fcb9101610f1c565b5f807ff0c57e16840df040f15088dc2f81fe391c3923bec73e23a9662efc9c229c6a006107c9565b61206761293d565b6001600160a01b03821661208e576040516337edfb9560e01b815260040160405180910390fd5b6001600160a01b0381166120b5576040516337edfb9560e01b815260040160405180910390fd5b6120be816120e1565b50600680546001600160a01b0319166001600160a01b0392909216919091179055565b5f80546001600160a01b038381166001600160a01b0319831681178455604051919092169283917f8be0079c531659141344cd1fd0a4f28419497f9722a3daafe3b4186f6b6457e09190a35050565b6114618282612962565b5f805b8351811015612239575f60025f86848151811061215c5761215c613d51565b60209081029190910181015182528101919091526040015f2080549091506001600160a01b038581169116146121a557604051633c254a5760e01b815260040160405180910390fd5b6001600682015460ff1660048111156121c0576121c0613a74565b146121de57604051632b34129b60e11b815260040160405180910390fd5b806004015481600501546121f29190613d00565b42106122115760405163393dabcd60e01b815260040160405180910390fd5b5f61221b82611b1b565b905080606001518461222d9190613d00565b9350505060010161213d565b5092915050565b5f5b82518110156114615761226e83828151811061226057612260613d51565b602002602001015183612a14565b600101612242565b5f606082606001515183602001515114158061229c575082604001515183602001515114155b156122d6575050604080518082019091526015815274082e4e4c2f240d8cadccee8d040dad2e6dac2e8c6d605b1b60208201525f92909150565b8260200151515f0361230e57505060408051808201909152600c81526b456d7074792061727261797360a01b60208201525f92909150565b82608001515f0361235157505060408051808201909152601881527724b73b30b634b2103634b9ba34b73390323ab930ba34b7b760411b60208201525f92909150565b5f5b8360200151518110156124d0578360600151818151811061237657612376613d51565b60200260200101515f036123be575f6040518060400160405280601681526020017516995c9bc81c1c9a58d9481b9bdd08185b1b1bddd95960521b8152509250925050915091565b836040015181815181106123d4576123d4613d51565b60200260200101515f03612423575f6040518060400160405280601781526020017f5a65726f20616d6f756e74206e6f7420616c6c6f7765640000000000000000008152509250925050915091565b5f612476855f01518660200151848151811061244157612441613d51565b60200260200101518760400151858151811061245f5761245f613d51565b60200260200101518860a001518960c00151611c1a565b90505f61248282612af6565b80519091506124c6575f61249584612bfb565b82604001516040516020016124ab929190613db6565b60405160208183030381529060405294509450505050915091565b5050600101612353565b50600160405180602001604052805f81525091509150915091565b5f81815260026020526040902061250181612cf7565b60068101805460ff1916600417905561251a8282612d90565b6001810154815460038301546040516001600160a01b03918216815291169084907f9c9f3e97cea44f70e4c2d6e7dad21e05fe60e2b3417c132557ac6de8502fdb7f9060200160405180910390a45050565b61259060405180606001604052805f15158152602001606081526020015f81525090565b81516060830151608084015160208501516040516323b872dd60e01b81526001600160a01b039384166004820152918316602483015260448201529116906323b872dd906064015f604051808303815f87803b1580156125ee575f5ffd5b505af19250505080156125ff575060015b6126725761260b613de5565b806308c379a003612634575061261f613dfe565b8061262a5750612636565b6020820152919050565b505b60405180604001604052806016815260200175115490cdcc8c481d1c985b9cd9995c8819985a5b195960521b8152508160200181905250919050565b60018082526040820152919050565b61268a81612e15565b60a0810151156126a6576126a681604001518260a00151612ed6565b5f8160c001511180156126c5575060208101516001600160a01b031615155b156126dc576126dc81602001518260c00151612ed6565b6080810151156118d2576118d2815f01518260800151612ed6565b6126ff6137c2565b81516001600160a01b0316612763576040518060a001604052805f6001600160a01b031681526020015f81526020015f81526020015f15158152602001604051806040016040528060048152602001634e6f6e6560e01b8152508152509050919050565b61276c82612f67565b905080606001511561277d57919050565b61278682612f9f565b905080606001511561279757919050565b6127a082613083565b90508060600151156127b157919050565b6040518060a001604052805f6001600160a01b031681526020015f81526020015f81526020015f15158152602001604051806040016040528060048152602001634e6f6e6560e01b8152508152509050919050565b80516060820151608083015160405163e985e9c560e01b81525f936001600160a01b03169263e985e9c592612852926004016001600160a01b0392831681529116602082015260400190565b602060405180830381865afa92505050801561288b575060408051601f3d908101601f1916820190925261288891810190613e80565b60015b156128a157801561289f5750600192915050565b505b8151602083015160405163020604bf60e21b81526001600160a01b039092169163081812fc916128d79160040190815260200190565b602060405180830381865afa925050508015612910575060408051601f3d908101601f1916820190925261290d91810190613d84565b60015b156129365782608001516001600160a01b0316816001600160a01b031614915050919050565b505f919050565b612945613158565b61112a57604051631afcd79f60e31b815260040160405180910390fd5b5f805b8354811015612a0b578284828154811061298157612981613d51565b905f5260205f20015403612a03578354849061299f90600190613e9f565b815481106129af576129af613d51565b905f5260205f2001548482815481106129ca576129ca613d51565b905f5260205f200181905550838054806129e6576129e6613eb2565b600190038181905f5260205f20015f9055905560019150506107c9565b600101612965565b505f9392505050565b5f82815260026020526040812090612a2b82611b1b565b60018084015460038501549293505f92612a51928792916001600160a01b031633611901565b90505f612a5d82611998565b8051909150612a7f57604051632cfc463160e01b815260040160405180910390fd5b6040805160c08101825260038601546001600160a01b0390811682528551166020808301919091526002870154828401528501516060808301919091529185015160808201529084015160a0820152612ad7816119cb565b845460038601546110449189916001600160a01b039182169116611a31565b60408051606080820183525f80835260208301529181019190915281516001600160a01b03161580612b33575060608201516001600160a01b0316155b15612b6c57604080518082018252601581527416995c9bc81859191c995cdcc81c1c9bdd9a591959605a1b602082015290820152919050565b5f612b79835f0151613171565b90505f816002811115612b8e57612b8e613a74565b03612b9c57610f4d83611c7c565b6001816002811115612bb057612bb0613a74565b03612bbe57610f4d83613289565b50604080518082018252601881527f556e737570706f72746564204e4654207374616e646172640000000000000000602082015290820152919050565b6060815f03612c215750506040805180820190915260018152600360fc1b602082015290565b815f5b8115612c4a5780612c3481613ec6565b9150612c439050600a83613d3e565b9150612c24565b5f816001600160401b03811115612c6357612c636138a4565b6040519080825280601f01601f191660200182016040528015612c8d576020820181803683370190505b5090505b841561107657612ca2600183613e9f565b9150612caf600a86613ede565b612cba906030613d00565b60f81b818381518110612ccf57612ccf613d51565b60200101906001600160f81b03191690815f1a905350612cf0600a86613d3e565b9450612c91565b6001600682015460ff166004811115612d1257612d12613a74565b14612d3057604051632b34129b60e11b815260040160405180910390fd5b80600401548160050154612d449190613d00565b4210612d635760405163393dabcd60e01b815260040160405180910390fd5b60038101546001600160a01b031633146118d2576040516308006a3560e31b815260040160405180910390fd5b80546001600160a01b03165f908152600360205260409020612db29083612130565b60038101546001600160a01b03165f908152600460205260409020612dd79083612130565b80546001600160a01b039081165f90815260056020908152604080832060018601548452825280832060039095015490931682529290925281205550565b80516001600160a01b0316612e3d57604051630934734d60e31b815260040160405180910390fd5b60408101516001600160a01b0316612e6857604051630934734d60e31b815260040160405180910390fd5b80606001515f03612e8c5760405163a48840d560e01b815260040160405180910390fd5b5f8160c001518260a001518360800151612ea69190613d00565b612eb09190613d00565b905081606001518114611a2d5760405163a48840d560e01b815260040160405180910390fd5b80471015612ef757604051630a4c318360e41b815260040160405180910390fd5b5f826001600160a01b0316826040515f6040518083038185875af1925050503d805f8114612f40576040519150601f19603f3d011682016040523d82523d5f602084013e612f45565b606091505b5050905080611461576040516363fd4d0160e01b815260040160405180910390fd5b612f6f6137c2565b5f612f7c835f01516133e3565b90506001600160a01b03811615612f9757610f4d8184613492565b610f4d613579565b612fa76137c2565b5f5f612fb5845f01516135d4565b9150915081612fc657611076613579565b8360600151811115612fda57611076613579565b5f612fe7855f0151613649565b90506001600160a01b038116612fff576111b4613579565b5f6127108387604001516130139190613d13565b61301d9190613d3e565b90506040518060a00160405280836001600160a01b031681526020018281526020018481526020016001151581526020016040518060400160405280600e81526020016d2130b9b2a1b7b63632b1ba34b7b760911b815250815250945050505050919050565b61308b6137c2565b5f5f6130a3845f0151856020015186604001516136af565b90925090506001600160a01b03821615806130bc575080155b156130c957611076613579565b60408401515f906130dc83612710613d13565b6130e69190613d3e565b905084606001518111156130fc576111b4613579565b6040518060a00160405280846001600160a01b03168152602001838152602001828152602001600115158152602001604051806040016040528060078152602001664552433239383160c81b8152508152509350505050919050565b5f613161612037565b54600160401b900460ff16919050565b5f6001600160a01b03821661318857506002919050565b6040516301ffc9a760e01b81526380ac58cd60e01b60048201526001600160a01b038316906301ffc9a790602401602060405180830381865afa9250505080156131ef575060408051601f3d908101601f191682019092526131ec91810190613e80565b60015b1561320457801561320257505f92915050565b505b6040516301ffc9a760e01b8152636cdb3d1360e11b60048201526001600160a01b038316906301ffc9a790602401602060405180830381865afa92505050801561326b575060408051601f3d908101601f1916820190925261326891810190613e80565b60015b1561328157801561327f5750600192915050565b505b506002919050565b60408051606080820183525f8083528284019190915260016020830152918301519091036132ed5760408051808201825260208082527f416d6f756e74206d7573742062652067726561746572207468616e207a65726f9082015290820152919050565b815160608301516020840151604051627eeac760e11b81526001600160a01b039283166004820152602481019190915291169062fdd58e90604401602060405180830381865afa925050508015613361575060408051601f3d908101601f1916820190925261335e91810190613ef1565b60015b6133995760408051808201825260158152744661696c656420746f206765742062616c616e636560581b602082015290820152919050565b82604001518110156133d957506040805180820182526014815273496e73756666696369656e742062616c616e636560601b602082015290820152919050565b50611d8f82613732565b60408051600481526024810182526020810180516001600160e01b0316639cfa688360e01b17905290515f91829182916001600160a01b038616916134289190613f08565b5f60405180830381855afa9150503d805f8114613460576040519150601f19603f3d011682016040523d82523d5f602084013e613465565b606091505b509150915081801561347957506020815110155b15612a0b57808060200190518101906110769190613d84565b61349a6137c2565b5f5f6134a5856135d4565b91509150816134bf576134b6613579565b925050506107c9565b83606001518111156134d3576134b6613579565b5f6134dd86613649565b90506001600160a01b0381166134ff576134f5613579565b93505050506107c9565b5f6127108387604001516135139190613d13565b61351d9190613d3e565b90506040518060a00160405280836001600160a01b031681526020018281526020018481526020016001151581526020016040518060400160405280600381526020016246656560e81b81525081525094505050505092915050565b6135816137c2565b6040518060a001604052805f6001600160a01b031681526020015f81526020015f81526020015f15158152602001604051806040016040528060048152602001634e6f6e6560e01b815250815250905090565b5f5f826001600160a01b031663820bdcdc6040518163ffffffff1660e01b8152600401602060405180830381865afa925050508015613630575060408051601f3d908101601f1916820190925261362d91810190613ef1565b60015b61363e57505f928392509050565b600194909350915050565b5f816001600160a01b0316638da5cb5b6040518163ffffffff1660e01b8152600401602060405180830381865afa9250505080156136a4575060408051601f3d908101601f191682019092526136a191810190613d84565b60015b6107c957505f919050565b60405163152a902d60e11b815260048101839052602481018290525f9081906001600160a01b03861690632a55205a906044016040805180830381865afa92505050801561371a575060408051601f3d908101601f1916820190925261371791810190613f13565b60015b61372857505f905080610d62565b9092509050610d62565b80516060820151608083015160405163e985e9c560e01b81525f936001600160a01b03169263e985e9c59261377e926004016001600160a01b0392831681529116602082015260400190565b602060405180830381865afa9250505080156137b7575060408051601f3d908101601f191682019092526137b491810190613e80565b60015b156129365792915050565b6040518060a001604052805f6001600160a01b031681526020015f81526020015f81526020015f15158152602001606081525090565b5f60208284031215613808575f5ffd5b81356001600160e01b031981168114610f4d575f5ffd5b6001600160a01b03811681146118d2575f5ffd5b5f60208284031215613843575f5ffd5b8135610f4d8161381f565b5f5f5f60608486031215613860575f5ffd5b833561386b8161381f565b92506020840135915060408401356138828161381f565b809150509250925092565b5f6020828403121561389d575f5ffd5b5035919050565b634e487b7160e01b5f52604160045260245ffd5b601f8201601f191681016001600160401b03811182821017156138dd576138dd6138a4565b6040525050565b5f6001600160401b038211156138fc576138fc6138a4565b5060051b60200190565b5f60208284031215613916575f5ffd5b81356001600160401b0381111561392b575f5ffd5b8201601f8101841361393b575f5ffd5b8035613946816138e4565b60405161395382826138b8565b80915082815260208101915060208360051b850101925086831115613976575f5ffd5b6020840193505b8284101561399857833582526020938401939091019061397d565b9695505050505050565b5f8151808452602084019350602083015f5b828110156139d25781518652602095860195909101906001016139b4565b5093949350505050565b86815260c060208201525f6139f460c08301886139a2565b8281036040840152613a0681886139a2565b90508281036060840152613a1a81876139a2565b90508281036080840152613a2e81866139a2565b9150508260a0830152979650505050505050565b5f5f5f60608486031215613a54575f5ffd5b8335613a5f8161381f565b95602085013595506040909401359392505050565b634e487b7160e01b5f52602160045260245ffd5b6001600160a01b0389811682526020820189905260408201889052861660608201526080810185905260a08101849052610100810160058410613ad957634e487b7160e01b5f52602160045260245ffd5b60c082019390935260e001529695505050505050565b5f5f5f5f60808587031215613b02575f5ffd5b8435613b0d8161381f565b966020860135965060408601359560600135945092505050565b5f5f60408385031215613b38575f5ffd5b8235613b438161381f565b946020939093013593505050565b5f5f60408385031215613b62575f5ffd5b8235613b6d8161381f565b91506020830135613b7d8161381f565b809150509250929050565b602081525f82518060208401528060208501604085015e5f604082850101526040601f19601f83011684010191505092915050565b602080825282518282018190525f918401906040840190835b81811015613bf4578351835260209384019390920191600101613bd6565b509095945050505050565b5f82601f830112613c0e575f5ffd5b8135613c19816138e4565b604051613c2682826138b8565b80915082815260208101915060208360051b860101925085831115613c49575f5ffd5b602085015b83811015613c66578035835260209283019201613c4e565b5095945050505050565b5f5f5f5f60808587031215613c83575f5ffd5b8435613c8e8161381f565b935060208501356001600160401b03811115613ca8575f5ffd5b613cb487828801613bff565b93505060408501356001600160401b03811115613ccf575f5ffd5b613cdb87828801613bff565b949793965093946060013593505050565b634e487b7160e01b5f52601160045260245ffd5b808201808211156107c9576107c9613cec565b80820281158282048414176107c9576107c9613cec565b634e487b7160e01b5f52601260045260245ffd5b5f82613d4c57613d4c613d2a565b500490565b634e487b7160e01b5f52603260045260245ffd5b8181035f83128015838313168383128216171561223957612239613cec565b5f60208284031215613d94575f5ffd5b8151610f4d8161381f565b5f81518060208401855e5f93019283525090919050565b6502a37b5b2b7160d51b81525f613dd06006830185613d9f565b6101d160f51b81526111b46002820185613d9f565b5f60033d1115613dfb5760045f5f3e505f5160e01c5b90565b5f60443d1015613e0b5790565b6040513d600319016004823e80513d60248201116001600160401b0382111715613e3457505090565b80820180516001600160401b03811115613e4f575050505090565b3d8401600319018282016020011115613e69575050505090565b613e78602082850101856138b8565b509392505050565b5f60208284031215613e90575f5ffd5b81518015158114610f4d575f5ffd5b818103818111156107c9576107c9613cec565b634e487b7160e01b5f52603160045260245ffd5b5f60018201613ed757613ed7613cec565b5060010190565b5f82613eec57613eec613d2a565b500690565b5f60208284031215613f01575f5ffd5b5051919050565b5f610f4d8284613d9f565b5f5f60408385031215613f24575f5ffd5b8251613f2f8161381f565b602093909301519294929350505056fea264697066735822122063421f1e8f7fba7b360a871560d7db54f026905d3cbc47919e817be12d1db65e64736f6c634300081e0033",
    "linkReferences": {}
  },
  "methodIdentifiers": {
    "BPS_DENOMINATOR()": "e1a45218",
    "batchBuyNFT(bytes32[])": "9b617d4b",
    "batchCancelListing(bytes32[])": "d6b25752",
    "batchListNFT(address,uint256[],uint256[],uint256)": "a801ec6f",
    "buyNFT(bytes32)": "17118469",
    "cancelListing(bytes32)": "9299e552",
    "contractType()": "cb2ef6f7",
    "get24hVolume(address)": "875ebbea",
    "getBatchPriceBreakdown(bytes32[])": "200d6542",
    "getBuyerSeesPrice(bytes32)": "90018a25",
    "getFloorDiff(bytes32)": "4cea9eb7",
    "getFloorPrice(address)": "c3e214fc",
    "getGeneratedListingId(address,uint256,address)": "c118f133",
    "getLadderPrice(address,uint256)": "44cb9941",
    "getListingsByCollection(address)": "982a5ab3",
    "getListingsBySeller(address)": "d8cba251",
    "getRoyaltyInfo(address,uint256,uint256)": "36de9742",
    "getTakerFee()": "3394177b",
    "getTopTraitPrice(address,uint256)": "863dfc61",
    "initialize(address,address)": "485cc955",
    "isActive()": "22f3e2d4",
    "listNFT(address,uint256,uint256,uint256)": "3c44a5f0",
    "marketplaceWallet()": "ed9ed696",
    "owner()": "8da5cb5b",
    "renounceOwnership()": "715018a6",
    "s_activeListings(address,uint256,address)": "1538a99b",
    "s_listings(bytes32)": "384b9fa8",
    "s_listingsByCollection(address,uint256)": "c6e5835c",
    "s_listingsBySeller(address,uint256)": "57157978",
    "s_marketplaceWallet()": "b44fcacd",
    "s_takerFee()": "061f9655",
    "supportedStandard()": "a6cf5679",
    "supportsInterface(bytes4)": "01ffc9a7",
    "transferOwnership(address)": "f2fde38b",
    "updateMarketplaceWallet(address)": "12bafd6f",
    "updateTakerFee(uint256)": "611c71b4",
    "version()": "54fd4d50"
  },
  "id": 60
}